0248723086937412022010100547+37132-076494FM-15+0016KPHF V0202105N00155028965MN0160935N5+01335+01285101545ADDAA101000025GA1025+022865999GA2085+028965999GD11991+0228659GD24991+0289659GE19AGL   +99999+99999GF199999999999022861999999MA1101565101375REMMET10012/31/21 19:54:03 METAR KPHF 010054Z 21003KT 10SM FEW075 OVC095 13/13 A2999 RMK AO2 SLP154 T01330128
0227723086937412022010101547+37132-076494FM-15+0016KPHF V0201905N00415027435MN0160935N5+01285+01285101425ADDAA101000395GA1085+027435999GD14991+0274359GE19AGL   +99999+99999GF199999999999027431999999MA1101425101235REMMET11012/31/21 20:54:03 METAR KPHF 010154Z 19008KT 10SM OVC090 13/13 A2995 RMK AO2 RAB0058E21 SLP142 P0001 T01280128
0230723086937412022010102407+37132-076494FM-16+0016KPHF V0201905N00515024385MN0160935N5+01335+01335999999ADDGA1045+002135999GA2075+024385999GD12991+0021359GD23991+0243859GE19AGL   +99999+99999GF199999999999002131999999MA1101395101205REMMET09312/31/21 21:40:03 SPECI KPHF 010240Z 19010KT 10SM SCT007 BKN080 13/13 A2994 RMK AO2 T01330133
0220723086937412022010102497+37132-076494FM-16+0016KPHF V0201805N00625002135MN0160935N5+01405+01305999999ADDGA1075+002135999GA2085+024385999GD13991+0021359GD24991+0243859GE19AGL   +99999+99999GF199999999999002131999999MA1101395101205REMMET08312/31/21 21:49:03 SPECI KPHF 010249Z 18012KT 10SM BKN007 OVC080 14/13 A2994 RMK AO2
0285723086937412022010102547+37132-076494FM-15+0016KPHF V0201905N00625001835MN0160935N5+01335+01335101375ADDAA101000095AA203000391GA1075+001835999GA2085+024385999GD13991+0018359GD24991+0243859GE19AGL   +99999+99999GF199999999999001831999999MA1101395101205MD1690179+9999REMMET11212/31/21 21:54:03 METAR KPHF 010254Z 19012KT 10SM BKN006 OVC080 13/13 A2994 RMK AO2 SLP137 60001 T01330133 56017
0210723086937412022010103547+37132-076494FM-15+0016KPHF V0201805N00415001525MN0160935N5+01395+01395101335ADDAA101000095GA1085+001525999GD14991+0015259GE19AGL   +99999+99999GF199999999999001521999999MA1101355101165REMMET09312/31/21 22:54:03 METAR KPHF 010354Z 18008KT 10SM OVC005 14/14 A2993 RMK AO2 SLP133 T01390139
0242723086937412022010104367+37132-076494FM-16+0016KPHF V0201905N00265003055MN0160935N5+01395+01395999999ADDGA1075+003055999GA2075+018295999GD13991+0030551GD23991+0182959GE19AGL   +99999+99999GF199999999999003051999999MA1101325101135REMMET10512/31/21 23:36:03 SPECI KPHF 010436Z 19005KT 10SM BKN010 BKN060 14/14 A2992 RMK AO2 CIG 006V013 T01390139
0204723086937412022010104467+37132-076494FM-16+0016KPHF V0202005N00155002745MN0160935N5+01395+01395999999ADDGA1075+002745999GD13991+0027451GE19AGL   +99999+99999GF199999999999002741999999MA1101325101135REMMET09812/31/21 23:46:03 SPECI KPHF 010446Z 20003KT 10SM BKN009 14/14 A2992 RMK AO2 CIG 007V011 T01390139
0246723086937412022010104547+37132-076494FM-15+0016KPHF V0201905N00215002745MN0160935N5+01395+01395101305ADDAA101000095GA1075+002745999GD13991+0027459GE19AGL   +99999+99999GF199999999999002741999999KA1240M+01391KA2240N+01001MA1101325101135REMMET10312/31/21 23:54:03 METAR KPHF 010454Z 19004KT 10SM BKN009 14/14 A2992 RMK AO2 SLP130 T01390139 401390100
0859723086937412022010104596+37132-076494SOD  +0016KPHF V020999999999999999999999999999+99999+99999999999ADDAA124000395AT1AU01FG  5AT2AU13BR  5AX1016246AX2026246KA1240M+01395KA2240N+01005MG1101244101294OE11249999999999997OE22240062619099995OE33240021599999995REMSOD66124 HR PRECIPITATION (IN): 0.01 WEATHER(CODE):12  24 HR MAX TEMP (F): 5724 HR MIN TEMP (F): 50AVERAGE STATION PRESSURE:29.895 MINIMUM SEA LEVEL PRESSURE:29.91 TIME OF OCCURRENCE:2359  FASTEST 2MIN SPEED (MPH): 14FASTEST 2MIN DIR (DEG):190 FASTEST 2MIN TIME (LST):     AVERAGE WIND SPEED (MPH): 4.8 24 HR AVG TEMP (F): 54DEPART FROM NORMAL: 13  SKY COVER SR-SS (TENTHS): 1HEATING DEGREE DAYS: 11 COOLING DEGREE DAYS:  0 LATEST DAY MAX TEMP (0700-1900 LST):56  LATEST NIGHT MIN TEMP(1900-0800 LST):50 HOURLY INCREMENTAL PRECIPITATION VALUES (IN):.00 0.00 0.00 0.00 0.00 0.00 0.00 0.00 0.00 0.00 0.00 0.00 0.00 0.00 0.00 0.00 0.00 0.00 0.00 T    0.01 0.00 0.00 0.00EQDR01    127AXW090R02    127AXW090
1263723086937412022010104596+37132-076494SOM  +0016KPHF V020999999999999999999999999999+99999+99999999999ADDAB10034096AD10019391819999999995AE1095035015005AH1005002091121005AH2010002891121035AH3015003391906215AH4020004191906255AH5030005191906345AH6045006691906505AI1060007991907055AI2080009191907255AI3100009791907445AI4120009991907495AI5150010291908085AI6180010491908585KB1744N+02675KB2744M+14675KB3744A+08675KC1N9-00441309995KC2M9+02161199995KD1744H05316KD2744C00005KE1005005115005MH1101644101864MK1103491422425100342515395REMSOM799PCP MTOT:1.34 PCP GT 24HRS:0.76 DATE(S):18-19 DAYS W/PCP >=.01:9  DAYS W/PCP >=.10:3  DAYS W/ PCP >=.50:1 DAYS W/PCP >=1.00:0 MSDP AMTS W/DATE-TIME TAGS:MIN:5 0.08  11/2100 MIN:10 0.11  11/2103 MIN:15 0.13  19/0621 MIN:20 0.16  19/0625 MIN:30 0.20  19/0634 MIN:45 0.26  19/0650 MIN:60 0.31  19/0705 MIN:80 0.36  19/0725 MIN:100 0.38  19/0744 MIN:120 0.39  19/0749 MIN:150 0.40  19/0808 MIN:180 0.41  19/0858 AVG DLY MIN:36.8  AVG DLY MAX:58.4  AVG MLY TMP:47.6  MIN TMP:24 DATE(S):13 09 MAX TMP:71  DATE(S):11 DAYS MAX <=32:0 DAYS MAX >=90:0  DAYS MIN <=32:11 DAYS MIN  <=0:0  AVG STP:30.015 LWST SLP:29.63 DATE/TIME:251539 HGST SLP:30.56 DATE/TIME:142242 HDD MTH TOT:531 DEP NORM:-2553 SEASON(JUL 1-JUN 30):1108 DEP NORM:-25536 CDD MTH TOT:0 DEP NORM:-2553 SEASON(JAN 1-DEC 31):1545 DEP NORM:-25536EQDR01  1.347ABP070R02   5317KDH045
0192723086937412022010105017+37132-076494FM-16+0016KPHF V0201805N00215003055MN0160935N5+01395+01395999999ADDGA1085+003055999GD14991+0030559GE19AGL   +99999+99999GF199999999999003051999999MA1101295101095REMMET08601/01/22 00:01:02 SPECI KPHF 010501Z 18004KT 10SM OVC010 14/14 A2991 RMK AO2 T01390139
0267723086937412022010105237+37132-076494FM-16+0016KPHF V0202005N00265011895MN0144845N5+01395+01395999999ADDGA1045+003055999GA2075+011895999GA3075+016765999GD12991+0030559GD23991+0118959GD33991+0167659GE19AGL   +99999+99999GF199999999999003051999999MA1101295101095REMMET09901/01/22 00:23:02 SPECI KPHF 010523Z 20005KT 9SM SCT010 BKN039 BKN055 14/14 A2991 RMK AO2 T01390139
0323723086937412022010105547+37132-076494FM-15+0016KPHF V0202005N00265011895MN0160935N5+01445+01445101245ADDAA101000095AA206000391GA1075+011895999GA2075+014335999GD13991+0118959GD23991+0143359GE19AGL   +99999+99999GF199999999999011891999999KA1060M+01441KA2060N+01281MA1101255101065MD1890139+9999REMMET12401/01/22 00:54:02 METAR KPHF 010554Z 20005KT 10SM BKN039 BKN047 14/14 A2990 RMK AO2 SLP124 60001 T01440144 10144 20128 58013
0229723086937412022010106547+37132-076494FM-15+0016KPHF V0202205N003652200059N0160935N5+01505+01445101245ADDAA101000095GA1025+010065999GD11991+0100659GE19AGL   +99999+99999GF102995999999010061999999MA1101255101065REMMET09301/01/22 01:54:02 METAR KPHF 010654Z 22007KT 10SM FEW033 15/14 A2990 RMK AO2 SLP124 T01500144EQDD01      0ADE726
0229723086937412022010107547+37132-076494FM-15+0016KPHF V0202305N003652200059N0160935N5+01565+01445101235ADDAA101000095GA1025+008845999GD11991+0088459GE19AGL   +99999+99999GF102995999999008841999999MA1101255101065REMMET09301/01/22 02:54:02 METAR KPHF 010754Z 23007KT 10SM FEW029 16/14 A2990 RMK AO2 SLP123 T01560144EQDD01      0ADE726
0205723086937412022010108547+37132-076494FM-15+0016KPHF V0202305N003152200059N0160935N5+01565+01505101165ADDAA101000095GA1005+999999999GD10991+9999999GF100991999999999999999999MA1101195100995MD1890079+9999REMMET09601/01/22 03:54:02 METAR KPHF 010854Z 23006KT 10SM CLR 16/15 A2988 RMK AO2 SLP116 T01560150 58007
0185723086937412022010109547+37132-076494FM-15+0016KPHF V0202405N002652200059N0160935N5+01565+01505101155ADDAA101000095GA1005+999999999GD10991+9999999GF100991999999999999999999MA1101155100965REMMET09001/01/22 04:54:02 METAR KPHF 010954Z 24005KT 10SM CLR 16/15 A2987 RMK AO2 SLP115 T01560150
0189723086937412022010110547+37132-076494FM-15+0016KPHF V0202105N002152200059N0128755N5+01445+01445101105ADDAA101000095GA1005+999999999GD10991+9999999GF100991999999999999999999MA1101125100935REMMET09401/01/22 05:54:02 METAR KPHF 011054Z 21004KT 8SM CLR 14/14 A2986 RMK AO2 SLP110 T01440144 (DP)
0215723086937412022010111437+37132-076494FM-16+0016KPHF V0201905N004152200059N0144845N5+01565+01565999999ADDGA1045+001835999GD12991+0018359GE19AGL   +99999+99999GF104995999999001831999999MA1101125100935REMMET09001/01/22 06:43:02 SPECI KPHF 011143Z 19008KT 9SM SCT006 16/16 A2986 RMK AO2 T01560156 (DP)EQDD01      0ADE726
0186723086937412022010111527+37132-076494FM-16+0016KPHF V0202005N00365001225MN0128755N5+01605+01605999999ADDGA1075+001225999GD13991+0012259GE19AGL   +99999+99999GF199999999999001221999999MA1101125100935REMMET08001/01/22 06:52:02 SPECI KPHF 011152Z 20007KT 8SM BKN004 16/16 A2986 RMK AO2 (DP)
0301723086937412022010111547+37132-076494FM-15+0016KPHF V0202105N00415001225MN0112655N5+01615+01615101115ADDAA101000095AA224000391GA1075+001225999GD13991+0012251GE19AGL   +99999+99999GF199999999999001221999999KA1060M+01611KA2060N+01441MA1101125100935MD1590049+9999REMMET13301/01/22 06:54:02 METAR KPHF 011154Z 21008KT 7SM BKN004 16/16 A2986 RMK AO2 CIG 003V006 SLP111 70001 T01610161 10161 20144 55004 (DP)
0220723086937412022010112027+37132-076494FM-16+0016KPHF V0202205N00315001225MN0028165N5+01565+01565999999ADDAU100001015AW1105GA1085+001225999GD14991+0012259GE19AGL   +99999+99999GF199999999999001221999999MA1101125100935REMMET09701/01/22 07:02:02 SPECI KPHF 011202Z 22006KT 1 3/4SM BR OVC004 16/16 A2986 RMK AO2 T01560156 (DP)
0217723086937412022010112197+37132-076494FM-16+0016KPHF V0202305N00365000615WN0012075N5+01615+01615999999ADDAU100001015AW1105GA1095+000615999GD15991+0006159GE19AGL   +99999+99999GF109991999999000611999999MA1101155100965REMMET09401/01/22 07:19:02 SPECI KPHF 011219Z 23007KT 3/4SM BR VV002 16/16 A2987 RMK AO2 T01610161 (DP)
0217723086937412022010112337+37132-076494FM-16+0016KPHF V0202205N00265000615WN0004025N5+01615+01615999999ADDAU100002015AW1305GA1095+000615999GD15991+0006159GE19AGL   +99999+99999GF109991999999000611999999MA1101195100995REMMET09401/01/22 07:33:02 SPECI KPHF 011233Z 22005KT 1/4SM FG VV002 16/16 A2988 RMK AO2 T01610161 (DP)
0235723086937412022010112547+37132-076494FM-15+0016KPHF V0202105N00215000615WN0004025N5+01615+01615101155ADDAA101000095AU100002015AW1305GA1095+000615999GD15991+0006159GE19AGL   +99999+99999GF109991999999000611999999MA1101155100965REMMET10101/01/22 07:54:02 METAR KPHF 011254Z 21004KT 1/4SM FG VV002 16/16 A2987 RMK AO2 SLP115 T01610161 (DP)
0267723086937412022010113417+37132-076494FM-16+0016KPHF V0201805N00265000915WN0008055N5+01615+01615999999ADDAA101000021AU110020015AU200002015AW1305AW2615GA1095+000915999GD15991+0009159GE19AGL   +99999+99999GF109991999999000911999999MA1101195100995MW1615REMMET11001/01/22 08:41:02 SPECI KPHF 011341Z 18005KT 1/2SM -RA FG VV003 16/16 A2988 RMK AO2 RAB24 P0000 T01610161 (DP)
0274723086937412022010113547+37132-076494FM-15+0016KPHF V0201805N00265000915WN0008055N5+01615+01615101175ADDAA101000025AU110020015AU200002015AW1305AW2615GA1095+000915999GD15991+0009159GE19AGL   +99999+99999GF109991999999000911999999MA1101195100995MW1615REMMET11701/01/22 08:54:02 METAR KPHF 011354Z 18005KT 1/2SM -RA FG VV003 16/16 A2988 RMK AO2 RAB24 SLP117 P0000 T01610161 (DP)
0304723086937412022010114547+37132-076494FM-15+0016KPHF V0201905N00365000615MN0016095N5+01675+01675101135ADDAA101000095AA203000021AU100001015AW1105GA1085+000615999GD14991+0006159GE19AGL   +99999+99999GF199999999999000611999999MA1101155100965MD1090029+9999REMMET12601/01/22 09:54:02 METAR KPHF 011454Z 19007KT 1SM BR OVC002 17/17 A2987 RMK AO2 RAE1359 SLP113 P0000 60000 T01670167 50002 (DP)EQDQ01  00008PRCP03
0282723086937412022010115137+37132-076494FM-16+0016KPHF V0201805N00315000615MN0040235N5+01725+01725999999ADDAA101000021AU110020015AU200001015AW1105AW2615GA1085+000615999GD14991+0006159GE19AGL   +99999+99999GF199999999999000611999999MA1101085100895MW1615REMMET12501/01/22 10:13:02 SPECI KPHF 011513Z 18006KT 2 1/2SM -RA BR OVC002 17/17 A2985 RMK AO2 LTG DSNT NE RAB07 P0000 T01720172 (DP)
0242723086937412022010115207+37132-076494FM-16+0016KPHF V0201905N00265000615MN0048285N5+01725+01725999999ADDAA101000021AU100001015AW1105GA1085+000615999GD14991+0006159GE19AGL   +99999+99999GF199999999999000611999999MA1101085100895REMMET10801/01/22 10:20:02 SPECI KPHF 011520Z 19005KT 3SM BR OVC002 17/17 A2985 RMK AO2 RAB07E17 P0000 T01720172 (DP)
0254723086937412022010115417+37132-076494FM-16+0016KPHF V0202005N00365001525MN0096565N5+01785+01785999999ADDAA101000021AU100001015AW1105GA1085+001525999GD14991+0015251GE19AGL   +99999+99999GF199999999999001521999999MA1101055100865REMMET12001/01/22 10:41:02 SPECI KPHF 011541Z 20007KT 6SM BR OVC005 18/18 A2984 RMK AO2 RAB07E17 CIG 003V008 P0000 T01780178 (DP)
0241723086937412022010115547+37132-076494FM-15+0016KPHF V0202005N00465002135MN0112655N5+01835+01835101005ADDAA101000025GA1085+002135999GD14991+0021351GE19AGL   +99999+99999GF199999999999002131999999MA1101025100825REMMET12401/01/22 10:54:02 METAR KPHF 011554Z 20009KT 7SM OVC007 18/18 A2983 RMK AO2 RAB07E17 CIG 004V011 SLP100 P0000 T01830183 (DP)
0242723086937412022010116277+37132-076494FM-16+0016KPHF V0201905N00465003355MN0160935N5+02065+01945999999ADDGA1075+003355999GA2075+005185999GD13991+0033559GD23991+0051859GE19AGL   +99999+99999GF199999999999003351999999MA1100885100695REMMET10501/01/22 11:27:02 SPECI KPHF 011627Z 19009KT 10SM BKN011 BKN017 21/19 A2979 RMK AO2 PRESFR T02060194 (DP)
0220723086937412022010116526+37132-076494FM-16+0016KPHF V0202105N00725004275MN0160935N5+02105+01905999999ADDGA1025+002745999GA2075+004275999GA3075+006105999GD11991+0027459GD23991+0042759GD33991+0061059MA1100815100625REMMET10001/01/22 11:52:02 SPECI KPHF 011652Z 21014KT 10SM FEW009 BKN014 BKN020 21/19 A2977 RMK AO2 FIBI (DP)
0291723086937412022010116547+37132-076494FM-15+0016KPHF V0202105N00725004275MN0160935N5+02115+01895100815ADDAA101000095GA1025+002745999GA2075+004275999GA3075+006105999GD11991+0027459GD23991+0042759GD33991+0061059GE19AGL   +99999+99999GF199999999999002741999999MA1100815100625REMMET11201/01/22 11:54:02 METAR KPHF 011654Z 21014KT 10SM FEW009 BKN014 BKN020 21/19 A2977 RMK AO2 SLP081 T02110189 (DP)
0235723086937412022010117097+37132-076494FM-16+0016KPHF V0202205N00675005495MN0160935N5+02115+01895999999ADDGA1075+005495999GA2075+007325999GD13991+0054959GD23991+0073259GE19AGL   +99999+99999GF199999999999005491999999MA1100815100625REMMET09801/01/22 12:09:02 SPECI KPHF 011709Z 22013KT 10SM BKN018 BKN024 21/19 A2977 RMK AO2 T02110189 (DP)
0301723086937412022010117547+37132-076494FM-15+0016KPHF V0202305N00675007625MN0160935N5+02225+01895100745ADDAA101000095AA206000021GA1085+007625999GD14991+0076259GE19AGL   +99999+99999GF199999999999007621999999KA1060M+02281KA2060N+01561MA1100755100555MD1690409+9999OC101035REMMET12501/01/22 12:54:02 METAR KPHF 011754Z 23013G20KT 10SM OVC025 22/19 A2975 RMK AO2 SLP074 60000 T02220189 10228 20156 56040 (DP)
0253723086937412022010118547+37132-076494FM-15+0016KPHF V0202405N00625008535MN0160935N5+02225+01895100695ADDAA101000095GA1075+008535999GA2085+010065999GD13991+0085359GD24991+0100659GE19AGL   +99999+99999GF199999999999008531999999MA1100715100525REMMET10501/01/22 13:54:02 METAR KPHF 011854Z 24012KT 10SM BKN028 OVC033 22/19 A2974 RMK AO2 SLP069 T02220189 (DP)
0216723086937412022010119297+37132-076494FM-16+0016KPHF V0202305N007252200059N0160935N5+02285+01895999999ADDGA1045+008845999GD12991+0088459GE19AGL   +99999+99999GF104995999999008841999999MA1100685100495REMMET09101/01/22 14:29:02 SPECI KPHF 011929Z 23014KT 10SM SCT029 23/19 A2973 RMK AO2 T02280189 (DP)EQDD01      0ADE726
0229723086937412022010119547+37132-076494FM-15+0016KPHF V0202305N006752200059N0160935N5+02285+01835100665ADDAA101000095GA1045+008845999GD12991+0088459GE19AGL   +99999+99999GF104995999999008841999999MA1100685100495REMMET09301/01/22 14:54:02 METAR KPHF 011954Z 23013KT 10SM SCT029 23/18 A2973 RMK AO2 SLP066 T02280183EQDD01      0ADE726
0210723086937412022010120547+37132-076494FM-15+0016KPHF V0202205N005152200059N0160935N5+02225+01835100625ADDAA101000095GA1005+999999999GD10991+9999999GF100991999999999999999999MA1100645100455MD1690129+9999REMMET10101/01/22 15:54:02 METAR KPHF 012054Z 22010KT 10SM CLR 22/18 A2972 RMK AO2 SLP062 T02220183 56012 (YE)
0190723086937412022010121547+37132-076494FM-15+0016KPHF V0202105N005752200059N0160935N5+02175+01785100595ADDAA101000095GA1005+999999999GD10991+9999999GF100991999999999999999999MA1100615100425REMMET09501/01/22 16:54:02 METAR KPHF 012154Z 21011KT 10SM CLR 22/18 A2971 RMK AO2 SLP059 T02170178 (YE)
0190723086937412022010122547+37132-076494FM-15+0016KPHF V0201905N006252200059N0160935N5+02115+01785100555ADDAA101000095GA1005+999999999GD10991+9999999GF100991999999999999999999MA1100585100385REMMET09501/01/22 17:54:02 METAR KPHF 012254Z 19012KT 10SM CLR 21/18 A2970 RMK AO2 SLP055 T02110178 (YE)
0248723086937412022010123547+37132-076494FM-15+0016KPHF V0202005N006252200059N0160935N5+02175+01785100575ADDAA101000095GA1005+999999999GD10991+9999999GF100991999999999999999999KA1060M+02331KA2060N+02111MA1100585100385MD1590059+9999REMMET11301/01/22 18:54:02 METAR KPHF 012354Z 20012KT 10SM CLR 22/18 A2970 RMK AO2 SLP057 T02170178 10233 20211 55005 (YE)
0210723086937412022010200547+37132-076494FM-15+0016KPHF V0209999N99999027435MN0160935N5+02175+01725100555ADDAA101000095GA1085+027435999GD14991+0274359GE19AGL   +99999+99999GF199999999999027431999999MA1100545100355REMMET09301/01/22 19:54:01 METAR KPHF 020054Z      KT 10SM OVC090 22/17 A2969 RMK AO2 SLP055 T02170172
0281723086937412022010201547+37132-076494FM-15+0016KPHF V0202005N00725030485MN0160935N5+02005+01835100545ADDAA101000025GA1045+021345999GA2085+030485999GD12991+0213459GD24991+0304859GE19AGL   +99999+99999GF199999999999021341999999MA1100545100355REMMET13301/01/22 20:54:01 METAR KPHF 020154Z 20014KT 10SM SCT070 OVC100 20/18 A2969 RMK AO2 PK WND 20029/0138 RAB37E46 SLP054 P0000 T02000183
0258723086937412022010202547+37132-076494FM-15+0016KPHF V0201905N00885030485MN0160935N5+02115+01785100475ADDAA101000095AA203000021GA1085+030485999GD14991+0304859GE19AGL   +99999+99999GF199999999999030481999999MA1100475100285MD1890109+9999OC101295REMMET10801/01/22 21:54:01 METAR KPHF 020254Z 19017G25KT 10SM OVC100 21/18 A2967 RMK AO2 SLP047 60000 T02110178 58010
0229723086937412022010203547+37132-076494FM-15+0016KPHF V0202105N007752200059N0160935N5+01945+01725100485ADDAA101000095GA1025+033535999GD11991+0335359GE19AGL   +99999+99999GF102995999999033531999999MA1100515100325REMMET09301/01/22 22:54:01 METAR KPHF 020354Z 21015KT 10SM FEW110 19/17 A2968 RMK AO2 SLP048 T01940172EQDD01      0ADE726
0221723086937412022010204547+37132-076494FM-15+0016KPHF V0202205N007752200059N0160935N5+02005+01785100445ADDAA101000095GA1005+999999999GD10991+9999999GF100991999999999999999999KA1240M+02331KA2240N+01391MA1100445100255REMMET10001/01/22 23:54:02 METAR KPHF 020454Z 22015KT 10SM CLR 20/18 A2966 RMK AO2 SLP044 T02000178 402330139
0920723086937412022010204596+37132-076494SOD  +0016KPHF V020999999999999999999999999999+99999+99999999999ADDAA124000025AT1AU16RA  5AT2AU01FG  5AT3AU13BR  5AX1016246AX2026246KA1240M+02335KA2240N+01395MG1100734100444OE11240147520099995OE22240089419099995OE33240047899999995REMSOD71024 HR PRECIPITATION (IN):    T WEATHER(CODE):12  24 HR MAX TEMP (F): 7424 HR MIN TEMP (F): 57AVERAGE STATION PRESSURE:29.745 MINIMUM SEA LEVEL PRESSURE:29.66 TIME OF OCCURRENCE:2359 PEAK WIND SPEED (MPH): 33 PEAK WIND DIR (DEG):200 PEAK WIND TIME (LST):      FASTEST 2MIN SPEED (MPH): 20FASTEST 2MIN DIR (DEG):190 FASTEST 2MIN TIME (LST):     AVERAGE WIND SPEED (MPH):10.7 24 HR AVG TEMP (F): 66DEPART FROM NORMAL: 25  HEATING DEGREE DAYS:  0 COOLING DEGREE DAYS:  1 LATEST DAY MAX TEMP (0700-1900 LST):74  LATEST NIGHT MIN TEMP(1900-0800 LST):55 HOURLY INCREMENTAL PRECIPITATION VALUES (IN):.00 0.00 0.00 0.00 0.00 0.00 0.00 0.00 T    0.00 T    0.00 0.00 0.00 0.00 0.00 0.00 0.00 0.00 0.00 T    0.00 0.00 0.00EQDR01    127AXW090R02    127AXW090
0385723086937412022010205547+37132-076494FM-15+0016KPHF V0202205N008852200059N0160935N5+02065+01725100425ADDAA101000095AA206000021GA1025+007625999GA2025+036585999GD11991+0076259GD21991+0365859GE19AGL   +99999+99999GF102995999999007621999999KA1060M+02221KA2060N+01941MA1100445100255MD1890059+9999OC101445OD149901441230REMMET14501/02/22 00:54:02 METAR KPHF 020554Z 22017G28KT 10SM FEW025 FEW120 21/17 A2966 RMK AO2 PK WND 23028/0551 SLP042 60000 T02060172 10222 20194 58005EQDD01      0ADE726
0291723086937412022010206547+37132-076494FM-15+0016KPHF V0202205N00935033535MN0160935N5+02065+01725100425ADDAA101000095GA1025+024385999GA2085+033535999GD11991+0243859GD24991+0335359GE19AGL   +99999+99999GF199999999999024381999999MA1100445100255OC101345OD149901331230REMMET12101/02/22 01:54:02 METAR KPHF 020654Z 22018G26KT 10SM FEW080 OVC110 21/17 A2966 RMK AO2 PK WND 23026/0647 SLP042 T02060172
0267723086937412022010207547+37132-076494FM-15+0016KPHF V0202205N007252200059N0160935N5+02005+01675100385ADDAA101000095GA1045+030485999GA2045+036585999GD12991+0304859GD22991+0365859GE19AGL   +99999+99999GF104995999999030481999999MA1100415100225REMMET10001/02/22 02:54:02 METAR KPHF 020754Z 22014KT 10SM SCT100 SCT120 20/17 A2965 RMK AO2 SLP038 T02000167EQDD01      0ADE726
0230723086937412022010208547+37132-076494FM-15+0016KPHF V0202205N00575036585MN0160935N5+01945+01675100355ADDAA101000095GA1075+036585999GD13991+0365859GE19AGL   +99999+99999GF199999999999036581999999MA1100375100185MD1890079+9999REMMET09901/02/22 03:54:02 METAR KPHF 020854Z 22011KT 10SM BKN120 19/17 A2964 RMK AO2 SLP035 T01940167 58007
0286723086937412022010209547+37132-076494FM-15+0016KPHF V0202205N00515011285MN0160935N5+02005+01615100335ADDAA101000095GA1075+011285999GA2075+013415999GA3085+030485999GD13991+0112859GD23991+0134159GD34991+0304859GE19AGL   +99999+99999GF199999999999011281999999MA1100345100155REMMET10701/02/22 04:54:02 METAR KPHF 020954Z 22010KT 10SM BKN037 BKN044 OVC100 20/16 A2963 RMK AO2 SLP033 T02000161
0287723086937412022010210547+37132-076494FM-15+0016KPHF V0209999N99999015245MN0160935N5+01945+01675100365ADDAA101000025AU110020015AW1615GA1045+013115999GA2085+015245999GD12991+0131159GD24991+0152459GE19AGL   +99999+99999GF199999999999013111999999MA1100375100185MW1615REMMET11601/02/22 05:54:02 METAR KPHF 021054Z      KT 10SM -RA SCT043 OVC050 19/17 A2964 RMK AO2 RAB49 SLP036 P0000 T01940167
0348723086937412022010211117+37132-076494FM-16+0016KPHF V0203405N00725007325MN0064375N5+01565+01505999999ADDAA101000731AU120020015AU200001015AW1105AW2625GA1025+004575999GA2075+007325999GA3085+012505999GD11991+0045759GD23991+0073259GD34991+0125059GE19AGL   +99999+99999GF199999999999004571999999MA1100545100355MW1655OC101085REMMET12101/02/22 06:11:02 SPECI KPHF 021111Z 34014G21KT 4SM RA BR FEW015 BKN024 OVC041 16/15 A2969 RMK AO2 PRESRR P0003 T01560150
0427723086937412022010211547+37132-076494FM-15+0016KPHF V0203605N00265008535MN0080475N5+01445+01445100615ADDAA101001595AA206001591AA324001591AU110020015AU200001015AW1105AW2615GA1075+008535999GA2085+010975999GD13991+0085359GD24991+0109759GE19AGL   +99999+99999GF199999999999008531999999KA1060M+02061KA2060N+01441MA1100615100425MD1390269+9999MW1615REMMET14201/02/22 06:54:02 METAR KPHF 021154Z 36005KT 5SM -RA BR BKN028 OVC036 14/14 A2971 RMK AO2 SLP061 P0006 60006 70006 T01440144 10206 20144 53026EQDQ01  00158PRCP06Q02  00158PRCP24
0273723086937412022010212017+37132-076494FM-16+0016KPHF V0200205N00265010365MN0112655N5+01445+01445999999ADDAA101000021AU110020015AW1615GA1045+009145999GA2085+010365999GD12991+0091459GD24991+0103659GE19AGL   +99999+99999GF199999999999009141999999MA1100645100455MW1615REMMET10201/02/22 07:01:02 SPECI KPHF 021201Z 02005KT 7SM -RA SCT030 OVC034 14/14 A2972 RMK AO2 P0000 T01440144
0248723086937412022010212507+37132-076494FM-16+0016KPHF V0209999C00005010975MN0028165N5+01405+01405999999ADDAA101001731AU120020015AU200001015AW1105AW2625GA1085+010975999GD14991+0109759GE19AGL   +99999+99999GF199999999999010971999999MA1100715100525MW1655REMMET09101/02/22 07:50:02 SPECI KPHF 021250Z 00000KT 1 3/4SM RA BR OVC036 14/14 A2974 RMK AO2 P0007
0303723086937412022010212547+37132-076494FM-15+0016KPHF V0209999C00005010975MN0024145N5+01445+01445100715ADDAA101002395AU120020015AU200001015AW1105AW2625GA1075+010975999GA2085+014335999GD13991+0109759GD24991+0143359GE19AGL   +99999+99999GF199999999999010971999999MA1100715100525MW1655REMMET11501/02/22 07:54:02 METAR KPHF 021254Z 00000KT 1 1/2SM RA BR BKN036 OVC047 14/14 A2974 RMK AO2 SLP071 P0008 T01440144
0331723086937412022010213067+37132-076494FM-16+0016KPHF V0201505N00315014945MN0048285N5+01445+01445999999ADDAA101000531AU110020015AU200001015AW1105AW2615GA1025+011585999GA2075+014945999GA3085+018295999GD11991+0115859GD23991+0149459GD34991+0182959GE19AGL   +99999+99999GF199999999999011581999999MA1100715100525MW1615REMMET11201/02/22 08:06:02 SPECI KPHF 021306Z 15006KT 3SM -RA BR FEW038 BKN049 OVC060 14/14 A2974 RMK AO2 P0002 T01440144
0248723086937412022010213526+37132-076494FM-16+0016KPHF V0201405N00365030485MN0160935N5+01505+01505999999ADDAU110020015AW1615GA1045+001225999GA2075+030485999GA3085+036585999GD12991+0012259GD23991+0304859GD34991+0365859MA1100685100495MW1615REMMET10501/02/22 08:52:02 SPECI KPHF 021352Z 14007KT 10SM -RA SCT004 BKN100 OVC120 15/15 A2973 RMK AO2 P0003 FIBI
0281723086937412022010213547+37132-076494FM-15+0016KPHF V0201505N00315030485MN0160935N5+01505+01505100675ADDAA101000595AU110020015AW1615GA1045+001225999GA2085+030485999GD12991+0012259GD24991+0304859GE19AGL   +99999+99999GF199999999999001221999999MA1100685100495MW1615REMMET11001/02/22 08:54:02 METAR KPHF 021354Z 15006KT 10SM -RA SCT004 OVC100 15/15 A2973 RMK AO2 SLP067 P0003 T01500150
0262723086937412022010214037+37132-076494FM-16+0016KPHF V0201605N00365001225MN0160935N5+01505+01505999999ADDAA101000021GA1075+001225999GA2085+033535999GD13991+0012259GD24991+0335359GE19AGL   +99999+99999GF199999999999001221999999MA1100715100525REMMET11401/02/22 09:03:02 SPECI KPHF 021403Z 16007KT 10SM BKN004 OVC110 15/15 A2974 RMK AO2 RAE1355 PRESRR P0000 T01500150
0213723086937412022010214527+37132-076494FM-16+0016KPHF V0201705N00315001525MN0160935N5+01505+01505999999ADDAA101000231GA1085+001525999GD14991+0015259GE19AGL   +99999+99999GF199999999999001521999999MA1100815100625REMMET09601/02/22 09:52:02 SPECI KPHF 021452Z 17006KT 10SM OVC005 15/15 A2977 RMK AO2 RAE1355B09E38 P0001
0324723086937412022010214547+37132-076494FM-15+0016KPHF V0201805N00265001525MN0160935N5+01505+01505100825ADDAA101000395AA203003091GA1075+001525999GA2085+028965999GD13991+0015259GD24991+0289659GE19AGL   +99999+99999GF199999999999001521999999MA1100815100625MD1390109+9999REMMET13201/02/22 09:54:02 METAR KPHF 021454Z 18005KT 10SM BKN005 OVC095 15/15 A2977 RMK AO2 RAE1355B09E38 SLP082 P0001 60012 T01500150 53010EQDQ01  00308PRCP03
0268723086937412022010215147+37132-076494FM-16+0016KPHF V0201705N00315030485MN0160935N5+01565+01505999999ADDGA1045+001525999GA2045+021345999GA3085+030485999GD12991+0015259GD22991+0213459GD34991+0304859GE19AGL   +99999+99999GF199999999999001521999999MA1100885100695REMMET10001/02/22 10:14:02 SPECI KPHF 021514Z 17006KT 10SM SCT005 SCT070 OVC100 16/15 A2979 RMK AO2 T01560150
0332723086937412022010215547+37132-076494FM-15+0016KPHF V0201805N00415024385MN0160935N5+01565+01505100775ADDAA101000395AU110020015AW1615GA1045+001525999GA2075+024385999GA3085+030485999GD12991+0015259GD23991+0243859GD34991+0304859GE19AGL   +99999+99999GF199999999999001521999999MA1100785100595MW1615REMMET13001/02/22 10:54:02 METAR KPHF 021554Z 18008KT 10SM -RA SCT005 BKN080 OVC100 16/15 A2976 RMK AO2 RAB17 PRESFR SLP077 P0001 T01560150
0291723086937412022010216307+37132-076494FM-16+0016KPHF V0201905N00575001835MN0160935N5+01565+01565999999ADDAA101000021GA1075+001835999GA2075+015245999GA3085+028965999GD13991+0018359GD23991+0152459GD34991+0289659GE19AGL   +99999+99999GF199999999999001831999999MA1100785100595REMMET11201/02/22 11:30:02 SPECI KPHF 021630Z 19011KT 10SM BKN006 BKN050 OVC095 16/16 A2976 RMK AO2 RAE25 P0000 T01560156
0222723086937412022010216547+37132-076494FM-15+0016KPHF V0202305N00575001525MN0160935N5+01615+01615100785ADDAA101000025GA1085+001525999GD14991+0015259GE19AGL   +99999+99999GF199999999999001521999999MA1100785100595REMMET10501/02/22 11:54:02 METAR KPHF 021654Z 23011KT 10SM OVC005 16/16 A2976 RMK AO2 RAE25 SLP078 P0000 T01610161
0249723086937412022010217247+37132-076494FM-16+0016KPHF V0202105N004652200059N0160935N5+01615+01615999999ADDGA1025+001835999GA2045+033535999GD11991+0018359GD22991+0335359GE19AGL   +99999+99999GF104995999999001831999999MA1100715100525REMMET09301/02/22 12:24:02 SPECI KPHF 021724Z 21009KT 10SM FEW006 SCT110 16/16 A2974 RMK AO2 T01610161EQDD01      0ADE726
0260723086937412022010217547+37132-076494FM-15+0016KPHF V0202305N006252200059N0160935N5+01725+01615100785ADDAA101000095AA206003391GA1005+999999999GD10991+9999999GF100991999999999999999999KA1060M+01721KA2060N+01441MA1100785100595MD1590039+9999REMMET11401/02/22 12:54:02 METAR KPHF 021754Z 23012KT 10SM CLR 17/16 A2976 RMK AO2 SLP078 60013 T01720161 10172 20144 55003
0185723086937412022010218547+37132-076494FM-15+0016KPHF V0202105N005752200059N0160935N5+01835+01675100705ADDAA101000095GA1005+999999999GD10991+9999999GF100991999999999999999999MA1100715100525REMMET09001/02/22 13:54:02 METAR KPHF 021854Z 21011KT 10SM CLR 18/17 A2974 RMK AO2 SLP070 T01830167
0185723086937412022010219547+37132-076494FM-15+0016KPHF V0202505N003652200059N0160935N5+01835+01675100795ADDAA101000095GA1005+999999999GD10991+9999999GF100991999999999999999999MA1100815100625REMMET09001/02/22 14:54:02 METAR KPHF 021954Z 25007KT 10SM CLR 18/17 A2977 RMK AO2 SLP079 T01830167
0205723086937412022010220547+37132-076494FM-15+0016KPHF V0202305N004152200059N0160935N5+01835+01675100885ADDAA101000095GA1005+999999999GD10991+9999999GF100991999999999999999999MA1100885100695MD1390099+9999REMMET09601/02/22 15:54:02 METAR KPHF 022054Z 23008KT 10SM CLR 18/17 A2979 RMK AO2 SLP088 T01830167 53009
0185723086937412022010221547+37132-076494FM-15+0016KPHF V0202405N003652200059N0160935N5+01785+01725100985ADDAA101000095GA1005+999999999GD10991+9999999GF100991999999999999999999MA1100985100795REMMET09001/02/22 16:54:02 METAR KPHF 022154Z 24007KT 10SM CLR 18/17 A2982 RMK AO2 SLP098 T01780172
0248723086937412022010222547+37132-076494FM-15+0016KPHF V0202505N00265036585MN0160935N5+01785+01725101035ADDAA101000095GA1025+030485999GA2075+036585999GD11991+0304859GD23991+0365859GE19AGL   +99999+99999GF199999999999030481999999MA1101055100865REMMET10001/02/22 17:54:02 METAR KPHF 022254Z 25005KT 10SM FEW100 BKN120 18/17 A2984 RMK AO2 SLP103 T01780172
0363723086937412022010223547+37132-076494FM-15+0016KPHF V0203005N001552200059N0160935N5+01725+01725101055ADDAA101000095GA1025+003055999GA2025+010365999GA3045+012505999GD11991+0030559GD21991+0103659GD32991+0125059GE19AGL   +99999+99999GF104995999999003051999999KA1060M+01831KA2060N+01721MA1101055100865MD1190189+9999REMMET12501/02/22 18:54:02 METAR KPHF 022354Z 30003KT 10SM FEW010 FEW034 SCT041 17/17 A2984 RMK AO2 SLP105 T01720172 10183 20172 51018EQDD01      0ADE726
0248723086937412022010300547+37132-076494FM-15+0016KPHF V0202905N00155033535MN0160935N5+01675+01675101125ADDAA101000095GA1025+027435999GA2085+033535999GD11991+0274359GD24991+0335359GE19AGL   +99999+99999GF199999999999027431999999MA1101125100935REMMET10001/02/22 19:54:01 METAR KPHF 030054Z 29003KT 10SM FEW090 OVC110 17/17 A2986 RMK AO2 SLP112 T01670167
0325723086937412022010301547+37132-076494FM-15+0016KPHF V0202405N00155028965MN0160935N5+01615+01615101155ADDAA101000025AU110020015AW1615GA1045+022865999GA2075+028965999GA3085+033535999GD12991+0228659GD23991+0289659GD34991+0335359GE19AGL   +99999+99999GF199999999999022861999999MA1101155100965MW1615REMMET12301/02/22 20:54:01 METAR KPHF 030154Z 24003KT 10SM -RA SCT075 BKN095 OVC110 16/16 A2987 RMK AO2 RAB39 SLP115 P0000 T01610161
0334723086937412022010302297+37132-076494FM-16+0016KPHF V0202105N00675007625MN0128755N5+01785+01675999999ADDAA101000231AU110020015AW1615GA1045+004275999GA2075+007625999GA3085+024385999GD12991+0042751GD23991+0076259GD34991+0243859GE19AGL   +99999+99999GF199999999999004271999999MA1101225101035MW1615OC100935REMMET12401/02/22 21:29:01 SPECI KPHF 030229Z 21013G18KT 8SM -RA SCT014 BKN025 OVC080 18/17 A2989 RMK AO2 CIG 019V033 P0001 T01780167
0302723086937412022010302507+37132-076494FM-16+0016KPHF V0202005N00315022865MN0160935N5+01605+01505999999ADDAA101000531AU110020015AW1615GA1025+005795999GA2075+022865999GA3085+033535999GD11991+0057959GD23991+0228659GD34991+0335359GE19AGL   +99999+99999GF199999999999005791999999MA1101125100935MW1615REMMET10001/02/22 21:50:01 SPECI KPHF 030250Z 20006KT 10SM -RA FEW019 BKN075 OVC110 16/15 A2986 RMK AO2 P0002
0354723086937412022010302547+37132-076494FM-15+0016KPHF V0202305N00155022865MN0160935N5+01565+01445101105ADDAA101000595AA203000591GA1025+005795999GA2075+022865999GA3085+033535999GD11991+0057959GD23991+0228659GD34991+0335359GE19AGL   +99999+99999GF199999999999005791999999MA1101125100935MD1890029+9999REMMET13101/02/22 21:54:01 METAR KPHF 030254Z 23003KT 10SM FEW019 BKN075 OVC110 16/14 A2986 RMK AO2 RAE52 SLP110 P0002 60002 T01560144 58002EQDQ01  00058PRCP03
0335723086937412022010303547+37132-076494FM-15+0016KPHF V0202105N00415021345MN0112655N5+01565+01395101195ADDAA101001395AU110020015AW1615GA1025+008845999GA2045+013725999GA3085+021345999GD11991+0088459GD22991+0137259GD34991+0213459GE19AGL   +99999+99999GF199999999999008841999999MA1101195100995MW1615OC100935REMMET12501/02/22 22:54:01 METAR KPHF 030354Z 21008G18KT 7SM -RA FEW029 SCT045 OVC070 16/14 A2988 RMK AO2 RAB13 SLP119 P0004 T01560139
0348723086937412022010304387+37132-076494FM-16+0016KPHF V0200705N00725008535MN0064375N5+01225+01115999999ADDAA101001231AU120020015AU200001015AW1105AW2625GA1025+004885999GA2075+008535999GA3085+021345999GD11991+0048859GD23991+0085359GD34991+0213459GE19AGL   +99999+99999GF199999999999004881999999MA1101395101205MW1655OC100985REMMET12101/02/22 23:38:02 SPECI KPHF 030438Z 07014G19KT 4SM RA BR FEW016 BKN028 OVC070 12/11 A2994 RMK AO2 PRESRR P0005 T01220111
0346723086937412022010304457+37132-076494FM-16+0016KPHF V0201005N00775007325MN0040235N5+01175+01115999999ADDAA101002731AU130020015AU200001015AW1105AW2635GA1025+003965999GA2075+007325999GA3085+016765999GD11991+0039659GD23991+0073259GD34991+0167659GE19AGL   +99999+99999GF199999999999003961999999MA1101425101235MW1635REMMET12701/02/22 23:45:02 SPECI KPHF 030445Z 10015KT 2 1/2SM +RA BR FEW013 BKN024 OVC055 12/11 A2995 RMK AO2 WSHFT 0431 P0011 T01170111
0400723086937412022010304547+37132-076494FM-15+0016KPHF V0200605N00575007625MN0028165N5+01065+01005101395ADDAA101007695AU130020015AU200001015AW1105AW2635GA1025+003965999GA2075+007625999GA3085+010065999GD11991+0039659GD23991+0076259GD34991+0100659GE19AGL   +99999+99999GF199999999999003961999999KA1240M+02061KA2240N+01061MA1101395101205MW1635OC101035REMMET14701/02/22 23:54:02 METAR KPHF 030454Z 06011G20KT 1 3/4SM +RA BR FEW013 BKN025 OVC033 11/10 A2994 RMK AO2 WSHFT 0431 SLP139 P0027 T01060100 402060106
0863723086937412022010304596+37132-076494SOD  +0016KPHF V020999999999999999999999999999+99999+99999999999ADDAA124013295AT1AU16RA  5AT2AU13BR  5AX1015245KA1240M+02065KA2240N+01065MG1100524100304OE11240143122099995OE22240093922099995OE33240042599999995REMSOD70924 HR PRECIPITATION (IN): 0.52 WEATHER(CODE):1  24 HR MAX TEMP (F): 6924 HR MIN TEMP (F): 51AVERAGE STATION PRESSURE:29.685 MINIMUM SEA LEVEL PRESSURE:29.62 TIME OF OCCURRENCE:0427 PEAK WIND SPEED (MPH): 32 PEAK WIND DIR (DEG):220 PEAK WIND TIME (LST):      FASTEST 2MIN SPEED (MPH): 21FASTEST 2MIN DIR (DEG):220 FASTEST 2MIN TIME (LST):     AVERAGE WIND SPEED (MPH): 9.5 24 HR AVG TEMP (F): 60DEPART FROM NORMAL: 20  HEATING DEGREE DAYS:  5 COOLING DEGREE DAYS:  0 LATEST DAY MAX TEMP (0700-1900 LST):65  LATEST NIGHT MIN TEMP(1900-0800 LST):58 HOURLY INCREMENTAL PRECIPITATION VALUES (IN):.00 0.00 0.00 0.00 0.00 T    0.06 0.09 0.02 0.01 0.01 T    0.00 0.00 0.00 0.00 0.00 0.00 0.00 0.00 T    0.02 0.05 0.30
0331723086937412022010305067+37132-076494FM-16+0016KPHF V0200305N00575007325MN0032195N5+01065+01005999999ADDAA101002731AU130020015AU200001015AW1105AW2635GA1025+003665999GA2075+007325999GA3085+012805999GD11991+0036659GD23991+0073259GD34991+0128059GE19AGL   +99999+99999GF199999999999003661999999MA1101425101235MW1635REMMET11201/03/22 00:06:02 SPECI KPHF 030506Z 03011KT 2SM +RA BR FEW012 BKN024 OVC042 11/10 A2995 RMK AO2 P0011 T01060100
0342723086937412022010305187+37132-076494FM-16+0016KPHF V0200405N00575008235MN0064375N5+00945+00895999999ADDAA101003831AU130020015AU200001015AW1105AW2635GA1025+007015999GA2075+008235999GA3085+012805999GD11991+0070159GD23991+0082359GD34991+0128059GE19AGL   +99999+99999GF199999999999007011999999MA1101425101235MW1635OC101085REMMET11501/03/22 00:18:02 SPECI KPHF 030518Z 04011G21KT 4SM +RA BR FEW023 BKN027 OVC042 09/09 A2995 RMK AO2 P0015 T00940089
0246723086937412022010305477+37132-076494FM-16+0016KPHF V0200305N00625009455MN0128755N5+00895+00785999999ADDAA101005031AU110020015AW1615GA1085+009455999GD14991+0094559GE19AGL   +99999+99999GF199999999999009451999999MA1101425101235MW1615OC101035REMMET09801/03/22 00:47:02 SPECI KPHF 030547Z 03012G20KT 8SM -RA OVC031 09/08 A2995 RMK AO2 P0020 T00890078
0336723086937412022010305547+37132-076494FM-15+0016KPHF V0200405N00515009455MN0112655N5+00895+00785101415ADDAA101004395AA206013791AU110020015AW1615GA1085+009455999GD14991+0094559GE19AGL   +99999+99999GF199999999999009451999999KA1060M+01781KA2060N+00891MA1101425101235MD1190319+9999MW1615REMMET12601/03/22 00:54:02 METAR KPHF 030554Z 04010KT 7SM -RA OVC031 09/08 A2995 RMK AO2 SLP141 P0021 60054 T00890078 10178 20089 51031EQDQ01  01378PRCP06
0246723086937412022010306477+37132-076494FM-16+0016KPHF V0200305N00575008845MN0128755N5+00835+00785999999ADDAA101000731AU110020015AW1615GA1085+008845999GD14991+0088459GE19AGL   +99999+99999GF199999999999008841999999MA1101395101205MW1615OC101035REMMET09801/03/22 01:47:02 SPECI KPHF 030647Z 03011G20KT 8SM -RA OVC029 08/08 A2994 RMK AO2 P0003 T00830078
0292723086937412022010306547+37132-076494FM-15+0016KPHF V0200405N00675008845MN0160935N5+00835+00725101405ADDAA101001095AU110020015AW1615GA1075+008845999GA2085+010365999GD13991+0088459GD24991+0103659GE19AGL   +99999+99999GF199999999999008841999999MA1101425101235MW1615OC101085REMMET11301/03/22 01:54:02 METAR KPHF 030654Z 04013G21KT 10SM -RA BKN029 OVC034 08/07 A2995 RMK AO2 SLP140 P0004 T00830072
0322723086937412022010307427+37132-076494FM-16+0016KPHF V0200405N00625009145MN0112655N5+00725+00675999999ADDAA101001531AU110020015AW1615GA1025+007625999GA2075+009145999GA3085+024385999GD11991+0076259GD23991+0091459GD34991+0243859GE19AGL   +99999+99999GF199999999999007621999999MA1101295101095MW1615OC101035REMMET11201/03/22 02:42:02 SPECI KPHF 030742Z 04012G20KT 7SM -RA FEW025 BKN030 OVC080 07/07 A2991 RMK AO2 P0006 T00720067
0348723086937412022010307547+37132-076494FM-15+0016KPHF V0200405N00625016765MN0096565N5+00785+00725101335ADDAA101002395AU120020015AU200001015AW1105AW2625GA1025+003055999GA2075+016765999GA3085+024385999GD11991+0030559GD23991+0167659GD34991+0243859GE19AGL   +99999+99999GF199999999999003051999999MA1101355101165MW1655OC101035REMMET12101/03/22 02:54:02 METAR KPHF 030754Z 04012G20KT 6SM RA BR FEW010 BKN055 OVC080 08/07 A2993 RMK AO2 SLP133 P0008 T00780072
0331723086937412022010308087+37132-076494FM-16+0016KPHF V0200305N00515003055MN0064375N5+00785+00785999999ADDAA101001031AU130020015AU200001015AW1105AW2635GA1075+003055999GA2075+007625999GA3085+015245999GD13991+0030559GD23991+0076259GD34991+0152459GE19AGL   +99999+99999GF199999999999003051999999MA1101325101135MW1635REMMET11201/03/22 03:08:02 SPECI KPHF 030808Z 03010KT 4SM +RA BR BKN010 BKN025 OVC050 08/08 A2992 RMK AO2 P0004 T00780078
0316723086937412022010308237+37132-076494FM-16+0016KPHF V0200205N00675002445MN0064375N5+00785+00785999999ADDAA101002731AU130020015AU200001015AW1105AW2635GA1075+002445999GA2085+007325999GD13991+0024451GD24991+0073259GE19AGL   +99999+99999GF199999999999002441999999MA1101325101135MW1635OC101245REMMET12001/03/22 03:23:02 SPECI KPHF 030823Z 02013G24KT 4SM +RA BR BKN008 OVC024 08/08 A2992 RMK AO2 CIG 006V014 P0011 T00780078
0341723086937412022010308547+37132-076494FM-15+0016KPHF V0200505N00725002445MN0064375N5+00725+00725101115ADDAA101006195AA203009191AU130020015AU200001015AW1105AW2635GA1085+002445999GD14991+0024451GE19AGL   +99999+99999GF199999999999002441999999MA1101125100935MD1890309+9999MW1635OC101245REMMET13201/03/22 03:54:02 METAR KPHF 030854Z 05014G24KT 4SM +RA BR OVC008 07/07 A2986 RMK AO2 CIG 005V010 SLP111 P0024 60036 T00720072 58030EQDQ01  00918PRCP03
0347723086937412022010309397+37132-076494FM-16+0016KPHF V0200505N00885002445MN0040235N5+00675+00615999999ADDAA101005531AU130020015AU200001015AW1105AW2635GA1075+002445999GA2085+004575999GD13991+0024459GD24991+0045759GE19AGL   +99999+99999GF199999999999002441999999MA1100985100795MW1635OC101495OD149901491040REMMET13701/03/22 04:39:02 SPECI KPHF 030939Z 05017G29KT 2 1/2SM +RA BR BKN008 OVC015 07/06 A2982 RMK AO2 PK WND 04029/0931 PRESFR P0022 T00670061
0326723086937412022010309507+37132-076494FM-16+0016KPHF V0200405N01035002445MN0048285N5+00705+00605999999ADDAA101006631AU130020015AU200001015AW1105AW2635GA1075+002445999GA2085+003965999GD13991+0024459GD24991+0039659GE19AGL   +99999+99999GF199999999999002441999999MA1100915100725MW1635OC101445OD149901491040REMMET11601/03/22 04:50:02 SPECI KPHF 030950Z 04020G28KT 3SM +RA BR BKN008 OVC013 07/06 A2980 RMK AO2 PK WND 04029/0931 P0026
0305723086937412022010309547+37132-076494FM-15+0016KPHF V0200405N01035002445MN0048285N5+00615+00615100935ADDAA101006995AU130020015AU200001015AW1105AW2635GA1085+002445999GD14991+0024459GE19AGL   +99999+99999GF199999999999002441999999MA1100955100765MW1635OC101495OD149901491030REMMET12601/03/22 04:54:02 METAR KPHF 030954Z 04020G29KT 3SM +RA BR OVC008 06/06 A2981 RMK AO2 PK WND 03029/0953 SLP093 P0027 T00610061
0298723086937412022010310447+37132-076494FM-16+0016KPHF V0200405N00935003665MN0048285N5+00505+00395999999ADDAA101004031AU130020015AU200001015AW1105AW2635GA1085+003665999GD14991+0036659GE19AGL   +99999+99999GF199999999999003661999999MA1100985100795MW1635OC101655OD149901641040REMMET11901/03/22 05:44:02 SPECI KPHF 031044Z 04018G32KT 3SM +RA BR OVC012 05/04 A2982 RMK AO2 PK WND 04032/1038 P0016 T00500039
0342723086937412022010310547+37132-076494FM-15+0016KPHF V0200405N00825003665MN0064375N5+00505+00445101055ADDAA101004695AU120020015AU200001015AW1105AW2625GA1075+003665999GA2085+005795999GD13991+0036659GD24991+0057959GE19AGL   +99999+99999GF199999999999003661999999MA1101055100865MW1655OC101295OD149901641040REMMET13201/03/22 05:54:02 METAR KPHF 031054Z 04016G25KT 4SM RA BR BKN012 OVC019 05/04 A2984 RMK AO2 PK WND 04032/1038 SLP105 P0018 T00500044
0304723086937412022010311277+37132-076494FM-16+0016KPHF V0200305N00725004575MN0048285N5+00445+00395999999ADDAA101002531AU120020015AU200001015AW1105AW2625GA1085+004575999GD14991+0045759GE19AGL   +99999+99999GF199999999999004571999999MA1101155100965MW1655OC101245OD149901441040REMMET12501/03/22 06:27:02 SPECI KPHF 031127Z 03014G24KT 3SM RA BR OVC015 04/04 A2987 RMK AO2 PK WND 04028/1100 PRESRR P0010 T00440039
0374723086937412022010311427+37132-076494FM-16+0016KPHF V0200305N00465003965MN0048285N5+00445+00445999999ADDAA101004331AU130020015AU200001015AW1105AW2635GA1025+002135999GA2075+003965999GA3085+005185999GD11991+0021359GD23991+0039659GD34991+0051859GE19AGL   +99999+99999GF199999999999002131999999MA1101225101035MW1635OC100775OD149901441040REMMET13301/03/22 06:42:02 SPECI KPHF 031142Z 03009G15KT 3SM +RA BR FEW007 BKN013 OVC017 04/04 A2989 RMK AO2 PK WND 04028/1100 P0017 T00440044
0296723086937412022010311526+37132-076494FM-16+0016KPHF V0200305N00725002745MN0048285N5+00405+00405999999ADDAU130020015AU200001015AW1105AW2635GA1075+002745999GA2075+003965999GA3085+005495999GD13991+0027459GD23991+0039659GD34991+0054959MA1101195100995MW1635OC101035REMMET12801/03/22 06:52:02 SPECI KPHF 031152Z 03014G20KT 3SM +RA BR BKN009 BKN013 OVC018 04/04 A2988 RMK AO2 PK WND 04028/1100 P0022 FIBI
0508723086937412022010311547+37132-076494FM-15+0016KPHF V0200405N00625002745MN0048285N5+00445+00395101205ADDAA101005895AA206026291AA324043291AU130020015AU200001015AW1105AW2635GA1075+002745999GA2075+003965999GA3085+005495999GD13991+0027459GD23991+0039659GD34991+0054959GE19AGL   +99999+99999GF199999999999002741999999KA1060M+00891KA2060N+00441MA1101225101035MD1390309+9999MW1635OC101035OD149901441040REMMET17001/03/22 06:54:02 METAR KPHF 031154Z 04012G20KT 3SM +RA BR BKN009 BKN013 OVC018 04/04 A2989 RMK AO2 PK WND 04028/1100 SLP120 P0022 60103 70170 T00440039 10089 20044 53030EQDQ01  02618PRCP06Q02  04318PRCP24
0342723086937412022010312047+37132-076494FM-16+0016KPHF V0200405N00725003965MN0064375N5+00445+00395999999ADDAA101001031AU130020015AU200001015AW1105AW2635GA1045+002745999GA2075+003965999GA3085+008235999GD12991+0027459GD23991+0039659GD34991+0082359GE19AGL   +99999+99999GF199999999999002741999999MA1101225101035MW1635OC101185REMMET11501/03/22 07:04:02 SPECI KPHF 031204Z 04014G23KT 4SM +RA BR SCT009 BKN013 OVC027 04/04 A2989 RMK AO2 P0004 T00440039
0324723086937412022010312547+37132-076494FM-15+0016KPHF V0200205V00415003665MN0160935N5+00395+00335101045ADDAA101001395AU110020015AW1615GA1075+003665999GA2085+005495999GD13991+0036659GD24991+0054959GE19AGL   +99999+99999GF199999999999003661999999MA1101055100865MW1615OC101855OD149901851040REMMET13101/03/22 07:54:02 METAR KPHF 031254Z 02008G36KT 10SM -RA BKN012 OVC018 04/03 A2984 RMK AO2 PK WND 04036/1247 SLP104 P0007 T00390033
0279723086937412022010313027+37132-076494FM-16+0016KPHF V0200305N00775002745MN0160935N5+00445+00335999999ADDAA101000021AU110020015AW1615GA1075+002745999GA2085+005495999GD13991+0027459GD24991+0054959GE19AGL   +99999+99999GF199999999999002741999999MA1100985100795MW1615REMMET10801/03/22 08:02:02 SPECI KPHF 031302Z 03015KT 10SM -RA BKN009 OVC018 04/03 A2982 RMK AO2 P0000 T00440033 (ST)
0296723086937412022010313497+37132-076494FM-16+0016KPHF V0200305V00575002445MN0040235N5+00405+00305999999ADDAA101001731AU120020015AU200001015AW1105AW2625GA1085+002445999GD14991+0024459GE19AGL   +99999+99999GF199999999999002441999999MA1100985100795MW1655OC101495OD149901591030REMMET11701/03/22 08:49:02 SPECI KPHF 031349Z 03011G29KT 2 1/2SM RA BR OVC008 04/03 A2982 RMK AO2 PK WND 03031/1310 P0007 (ST)
0224723086937412022010313526+37132-076494FM-16+0016KPHF V0200305V00775002445MN0048285N5+00405+00305999999ADDAU120020015AU200001015AW1105AW2625GA1085+002445999GD14991+0024459MA1100985100795MW1655OC101495REMMET11801/03/22 08:52:02 SPECI KPHF 031352Z 03015G29KT 3SM RA BR OVC008 04/03 A2982 RMK AO2 PK WND 03031/1310 P0008 FIBI (ST)
0310723086937412022010313547+37132-076494FM-15+0016KPHF V0200205N00515002445MN0064375N5+00395+00335100945ADDAA101002395AU110020015AU200001015AW1105AW2615GA1085+002445999GD14991+0024459GE19AGL   +99999+99999GF199999999999002441999999MA1100955100765MW1615OC101295OD149901591030REMMET13101/03/22 08:54:02 METAR KPHF 031354Z 02010G25KT 4SM -RA BR OVC008 04/03 A2981 RMK AO2 PK WND 03031/1310 SLP094 P0008 T00390033 (ST)
0314723086937412022010314017+37132-076494FM-16+0016KPHF V0200305N00985003055MN0048285N5+00395+00335999999ADDAA101000531AU120020015AU200001015AW1105AW2625GA1085+003055999GD14991+0030551GE19AGL   +99999+99999GF199999999999003051999999MA1100915100725MW1655OC101495OD149901491030REMMET13501/03/22 09:01:02 SPECI KPHF 031401Z 03019G29KT 3SM RA BR OVC010 04/03 A2980 RMK AO2 PK WND 03029/1359 CIG 007V012 P0002 T00390033 (ST)
0340723086937412022010314237+37132-076494FM-16+0016KPHF V0200205N00775003055MN0032195N5+00395+00335999999ADDAA101001531AU120020015AU200001015AW1105AW2625GA1075+003055999GA2085+004575999GD13991+0030559GD24991+0045759GE19AGL   +99999+99999GF199999999999003051999999MA1100955100765MW1655OC101655OD149901641030REMMET13001/03/22 09:23:02 SPECI KPHF 031423Z 02015G32KT 2SM RA BR BKN010 OVC015 04/03 A2981 RMK AO2 PK WND 03032/1420 P0006 T00390033 (ST)
0348723086937412022010314337+37132-076494FM-16+0016KPHF V0200305N00885003055MN0064375N5+00395+00335999999ADDAA101001731AU110020015AU200001015AW1105AW2615GA1075+003055999GA2085+004885999GD13991+0030559GD24991+0048859GE19AGL   +99999+99999GF199999999999003051999999MA1100985100795MW1615OC101245OD149901641030REMMET13801/03/22 09:33:02 SPECI KPHF 031433Z 03017G24KT 4SM -RA BR BKN010 OVC016 04/03 A2982 RMK AO2 PK WND 03032/1420 PRESRR P0007 T00390033 (ST)
0341723086937412022010314507+37132-076494FM-16+0016KPHF V0200405N01085003055MN0028165N5+00305+00305999999ADDAA101002731AU120020015AU200001015AW1105AW2625GA1075+003055999GA2085+004885999GD13991+0030559GD24991+0048859GE19AGL   +99999+99999GF199999999999003051999999MA1100755100555MW1655OC101905OD149901901040REMMET13101/03/22 09:50:02 SPECI KPHF 031450Z 04021G37KT 1 3/4SM RA BR BKN010 OVC016 03/03 A2975 RMK AO2 PK WND 04037/1447 PRESFR P0011 (ST)
0414723086937412022010314517+37132-076494FM-15+0016KPHF V0200405N01135003055MN0028165N5+00335+00285100725ADDAA101002895AA203006691AU120020015AU200001015AW1105AW2625GA1075+003055999GA2085+004885999GD13991+0030559GD24991+0048859GE19AGL   +99999+99999GF199999999999003051999999MA1100755100555MD1890329+9999MW1655OC101965OD149901951020REMMET16001/03/22 09:51:02 METAR KPHF 031451Z 04022G38KT 1 3/4SM RA BR BKN010 OVC016 03/03 A2975 RMK AO2 PK WND 02038/1451 PRESFR SLP072 P0011 60026 T00330028 58032 (ST)EQDQ01  00668PRCP03
0341723086937412022010314587+37132-076494FM-16+0016KPHF V0200305N01035003055MN0048285N5+00335+00285999999ADDAA101000231AU110020015AU200001015AW1105AW2615GA1075+003055999GA2085+004885999GD13991+0030559GD24991+0048859GE19AGL   +99999+99999GF199999999999003051999999MA1100855100665MW1615OC101965OD149901851020REMMET13101/03/22 09:58:02 SPECI KPHF 031458Z 03020G38KT 3SM -RA BR BKN010 OVC016 03/03 A2978 RMK AO2 PK WND 02036/1452 P0001 T00330028 (ST)
0344723086937412022010315257+37132-076494FM-16+0016KPHF V0200305N01185003055MN0028165N5+00335+00285999999ADDAA101001031AU120020015AU200001015AW1105AW2625GA1075+003055999GA2085+005495999GD13991+0030559GD24991+0054959GE19AGL   +99999+99999GF199999999999003051999999MA1100855100665MW1655OC101905OD149901901020REMMET13401/03/22 10:25:02 SPECI KPHF 031525Z 03023G37KT 1 3/4SM RA BR BKN010 OVC018 03/03 A2978 RMK AO2 PK WND 02037/1525 P0004 T00330028 (ST)
0313723086937412022010315367+37132-076494FM-16+0016KPHF V0200305N01035003355MN0040235N5+00335+00285999999ADDAA101001231AU120020015AU200001015AW1105AW2625GA1085+003355999GD14991+0033559GE19AGL   +99999+99999GF199999999999003351999999MA1100715100525MW1655OC101805OD149902051020REMMET13401/03/22 10:36:02 SPECI KPHF 031536Z 03020G35KT 2 1/2SM RA BR OVC011 03/03 A2974 RMK AO2 PK WND 02040/1526 PRESFR P0005 T00330028 (ST)
0336723086937412022010315467+37132-076494FM-16+0016KPHF V0200305N01245003355MN0048285N5+00285+00285999999ADDAA101001531AU110020015AU200001015AW1105AW2615GA1075+003355999GA2085+004885999GD13991+0033559GD24991+0048859GE19AGL   +99999+99999GF199999999999003351999999MA1100755100555MW1615OC102015OD149902051020REMMET12601/03/22 10:46:02 SPECI KPHF 031546Z 03024G39KT 3SM -RA BR BKN011 OVC016 03/03 A2975 RMK AO2 PK WND 02040/1526 P0006 T00280028
0305723086937412022010315547+37132-076494FM-15+0016KPHF V0200205N01085003355MN0064375N5+00285+00225100795ADDAA101001595AU110020015AU200001015AW1105AW2615GA1085+003355999GD14991+0033559GE19AGL   +99999+99999GF199999999999003351999999MA1100815100625MW1615OC102015OD149902051020REMMET12601/03/22 10:54:02 METAR KPHF 031554Z 02021G39KT 4SM -RA BR OVC011 03/02 A2977 RMK AO2 PK WND 02040/1526 SLP079 P0006 T00280022
0307723086937412022010316037+37132-076494FM-16+0016KPHF V0200105N00885002745MN0040235N5+00285+00225999999ADDAA101000531AU110020015AU200001015AW1105AW2615GA1085+002745999GD14991+0027459GE19AGL   +99999+99999GF199999999999002741999999MA1100785100595MW1615OC101805OD149901801020REMMET12801/03/22 11:03:02 SPECI KPHF 031603Z 01017G35KT 2 1/2SM -RA BR OVC009 03/02 A2976 RMK AO2 PK WND 02035/1557 P0002 T00280022 (YE)
0344723086937412022010316287+37132-076494FM-16+0016KPHF V0200105N00935003665MN0028165N5+00285+00225999999ADDAA101002231AU120020015AU200001015AW1105AW2625GA1075+003665999GA2085+006105999GD13991+0036659GD24991+0061059GE19AGL   +99999+99999GF199999999999003661999999MA1100885100695MW1655OC101855OD149901851030REMMET13401/03/22 11:28:02 SPECI KPHF 031628Z 01018G36KT 1 3/4SM RA BR BKN012 OVC020 03/02 A2979 RMK AO2 PK WND 03036/1619 P0009 T00280022 (YE)
0340723086937412022010316427+37132-076494FM-16+0016KPHF V0200205N00675003665MN0048285N5+00225+00175999999ADDAA101003331AU120020015AU200001015AW1105AW2625GA1075+003665999GA2085+005185999GD13991+0036659GD24991+0051859GE19AGL   +99999+99999GF199999999999003661999999MA1100855100665MW1655OC101495OD149901851030REMMET13001/03/22 11:42:02 SPECI KPHF 031642Z 02013G29KT 3SM RA BR BKN012 OVC017 02/02 A2978 RMK AO2 PK WND 03036/1619 P0013 T00220017 (YE)
0270723086937412022010316526+37132-076494FM-16+0016KPHF V0203505N00725002745MN0096565N5+00205+00205999999ADDAU110020015AU200001015AW1105AW2615GA1075+002745999GA2085+006105999GD13991+0027459GD24991+0061059MA1100955100765MW1615OC101295REMMET13301/03/22 11:52:02 SPECI KPHF 031652Z 35014G25KT 6SM -RA BR BKN009 OVC020 02/02 A2981 RMK AO2 PK WND 03036/1619 PRESRR P0013 FIBI (YE)
0354723086937412022010316547+37132-076494FM-15+0016KPHF V0203605N00675002745MN0080475N5+00225+00175100945ADDAA101003395AU120020015AU200001015AW1105AW2625GA1075+002745999GA2085+006105999GD13991+0027459GD24991+0061059GE19AGL   +99999+99999GF199999999999002741999999MA1100955100765MW1655OC101295OD149901851030REMMET14401/03/22 11:54:02 METAR KPHF 031654Z 36013G25KT 5SM RA BR BKN009 OVC020 02/02 A2981 RMK AO2 PK WND 03036/1619 PRESRR SLP094 P0014 T00220017 (YE)
0307723086937412022010317287+37132-076494FM-16+0016KPHF V0203505N00575002445MN0040235N5+00115+00115999999ADDAA101000531AU110020015AU200001015AW1105AW2615GA1075+002445999GD13991+0024459GE19AGL   +99999+99999GF199999999999002441999999MA1101085100895MW1615OC101135OD149901591320REMMET12801/03/22 12:28:02 SPECI KPHF 031728Z 35011G22KT 2 1/2SM -RA BR BKN008 01/01 A2985 RMK AO2 PK WND 32031/1707 P0002 T00110011 (YE)
0303723086937412022010317477+37132-076494FM-16+0016KPHF V0203605N00675002445MN0048285N5+00115+00065999999ADDAA101000731AU110020015AU200001015AW1105AW2615GA1075+002445999GD13991+0024459GE19AGL   +99999+99999GF199999999999002441999999MA1101055100865MW1615OC101085OD149901591320REMMET12401/03/22 12:47:02 SPECI KPHF 031747Z 36013G21KT 3SM -RA BR BKN008 01/01 A2984 RMK AO2 PK WND 32031/1707 P0003 T00110006 (YE)
0415723086937412022010317547+37132-076494FM-15+0016KPHF V0200105N00675002445MN0048285N5+00065+00065101045ADDAA101001095AA206012791AU110030015AU200001015AW1105AW2715GA1075+002445999GD13991+0024459GE19AGL   +99999+99999GF199999999999002441999999KA1060M+00441KA2060N+00061MA1101055100865MD1390319+9999MW1715OC101245OD149901591320REMMET16601/03/22 12:54:02 METAR KPHF 031754Z 01013G24KT 3SM -SN BR BKN008 01/01 A2984 RMK AO2 PK WND 32031/1707 RAE54SNB54 SLP104 P0004 60050 T00060006 10044 20006 53031 (YE)EQDQ01  01278PRCP06
0320723086937412022010318007+37132-076494FM-16+0016KPHF V0200105N00725003055MN0040235N5+00065+00065999999ADDAA101000021AU110030015AU200001015AW1105AW2715GA1075+003055999GA2085+006405999GD13991+0030559GD24991+0064059GE19AGL   +99999+99999GF199999999999003051999999MA1101025100825MW1715OC101245REMMET12401/03/22 13:00:02 SPECI KPHF 031800Z 01014G24KT 2 1/2SM -SN BR BKN010 OVC021 01/01 A2983 RMK AO2 PRESFR P0000 T00060006 (YE)
0379723086937412022010318137+37132-076494FM-16+0016KPHF V0203605N00675003665MN0048285N5+00065+00005999999ADDAA101000231AU110030015AU200001015AW1105AW2715GA1045+002745999GA2075+003665999GA3085+013415999GD12991+0027459GD23991+0036659GD34991+0134159GE19AGL   +99999+99999GF199999999999002741999999MA1101025100825MW1715OC101445OD149901441010REMMET13801/03/22 13:13:02 SPECI KPHF 031813Z 36013G28KT 3SM -SN BR SCT009 BKN012 OVC044 01/00 A2983 RMK AO2 PK WND 01028/1813 P0001 T00060000 (YE)
0386723086937412022010318307+37132-076494FM-16+0016KPHF V0203505N00625003055MN0032195N5+00065+00005999999ADDAA101000231AU110030015AU200001015AW1105AW2715GA1075+003055999GA2075+005795999GA3085+010975999GD13991+0030559GD23991+0057959GD34991+0109759GE19AGL   +99999+99999GF199999999999003051999999MA1101125100935MW1715OC101185OD149901441020REMMET14501/03/22 13:30:02 SPECI KPHF 031830Z 35012G23KT 2SM -SN BR BKN010 BKN019 OVC036 01/00 A2986 RMK AO2 PK WND 02028/1815 PRESRR P0001 T00060000 (YE)
0390723086937412022010318377+37132-076494FM-16+0016KPHF V0203505N00775003965MN0024145N5+00065+00005999999ADDAA101000531AU110030015AU200001015AW1105AW2715GA1045+003055999GA2075+003965999GA3085+008535999GD12991+0030559GD23991+0039659GD34991+0085359GE19AGL   +99999+99999GF199999999999003051999999MA1101155100965MW1715OC101135OD149901441020REMMET14901/03/22 13:37:02 SPECI KPHF 031837Z 35015G22KT 1 1/2SM -SN BR SCT010 BKN013 OVC028 01/00 A2987 RMK AO2 PK WND 02028/1815 PRESRR P0002 T00060000 (YE)
0333723086937412022010318497+37132-076494FM-16+0016KPHF V0203505N00575002745MN0012075N5+00005+00005999999ADDAA101000531AU110030015AU200001015AW1105AW2715GA1075+002745999GA2085+004575999GD13991+0027459GD24991+0045759GE19AGL   +99999+99999GF199999999999002741999999MA1101225101035MW1715OC101035OD149901441020REMMET12301/03/22 13:49:02 SPECI KPHF 031849Z 35011G20KT 3/4SM -SN BR BKN009 OVC015 00/00 A2989 RMK AO2 PK WND 02028/1815 P0002 (YE)
0350723086937412022010318547+37132-076494FM-15+0016KPHF V0203505N00625003355MN0012075N5+00005+00005101225ADDAA101000595AU110030015AU200001015AW1105AW2715GA1025+001835999GA2085+003355999GD11991+0018359GD24991+0033559GE19AGL   +99999+99999GF199999999999001831999999MA1101225101035MW1715OC101035OD149901441020REMMET14001/03/22 13:54:02 METAR KPHF 031854Z 35012G20KT 3/4SM -SN BR FEW006 OVC011 00/00 A2989 RMK AO2 PK WND 02028/1815 SLP122 P0002 T00000000 (YE)
0279723086937412022010319047+37132-076494FM-16+0016KPHF V0203405N00575002445MN0008055N5+00005+00005999999ADDAA101000021AU120030015AU200002015AW1305AW2725GA1085+002445999GD14991+0024459GE19AGL   +99999+99999GF199999999999002441999999MA1101255101065MW1735OC101135REMMET11401/03/22 14:04:02 SPECI KPHF 031904Z 34011G22KT 1/2SM SN FG OVC008 00/00 A2990 RMK AO2 PRESRR P0000 T00000000 (YE)
0271723086937412022010319366+37132-076494FM-16+0016KPHF V0203405N00625002745MN0004025N5+00005+00005999999ADDAU130030015AU200002015AW1305AW2735GA1025+001525999GA2085+002745999GD11991+0015259GD24991+0027459MA1101425101235OC101345REMMET14001/03/22 14:36:02 SPECI KPHF 031936Z 34012G26KT 1/4SM +SN FG FEW005 OVC009 00/00 A2995 RMK AO2 PK WND 32026/1932 PRESRR P0000 T00000000 FIBI
0336723086937412022010319527+37132-076494FM-16+0016KPHF V0203305N00935002745MN0012075N5+00005-00105999999ADDAA101000021AU110030015AU200001015AW1105AW2715GA1025+001525999GA2085+002745999GD11991+0015259GD24991+0027459GE19AGL   +99999+99999GF199999999999001521999999MA1101525101335MW1715OC101655OD149901641330REMMET12601/03/22 14:52:02 SPECI KPHF 031952Z 33018G32KT 3/4SM -SN BR FEW005 OVC009 00/M01 A2998 RMK AO2 PK WND 33032/1951 PRESRR P0000
0389723086937412022010319547+37132-076494FM-15+0016KPHF V0203305N00935003965MN0016095N5+00005-00065101545ADDAA101000025AU110030015AU200001015AW1105AW2715GA1025+001525999GA2045+002745999GA3085+003965999GD11991+0015259GD22991+0027459GD34991+0039659GE19AGL   +99999+99999GF199999999999001521999999MA1101565101375MW1715OC101655OD149901641330REMMET14801/03/22 14:54:02 METAR KPHF 031954Z 33018G32KT 1SM -SN BR FEW005 SCT009 OVC013 00/M01 A2999 RMK AO2 PK WND 33032/1951 PRESRR SLP154 P0000 T00001006
0346723086937412022010320067+37132-076494FM-16+0016KPHF V0203205N01035005185MN0012075N5+00005-00065999999ADDAA101000021AU110030015AU200001015AW1105AW2715GA1045+002135999GA2085+005185999GD12991+0021359GD24991+0051859GE19AGL   +99999+99999GF199999999999002131999999MA1101635101435MW1715OC101345OD149901331350REMMET13601/03/22 15:06:02 SPECI KPHF 032006Z 32020G26KT 3/4SM -SN BR SCT007 OVC017 00/M01 A3001 RMK AO2 PK WND 35026/2006 PRESRR P0000 T00001006
0383723086937412022010320127+37132-076494FM-16+0016KPHF V0203305N00725002445MN0008055N5+00005-00065999999ADDAA101000231AU120030015AU200002015AW1305AW2725GA1075+002445999GA2075+003965999GA3085+005495999GD13991+0024459GD23991+0039659GD34991+0054959GE19AGL   +99999+99999GF199999999999002441999999MA1101665101475MW1735OC101345OD149901331350REMMET14201/03/22 15:12:02 SPECI KPHF 032012Z 33014G26KT 1/2SM SN FG BKN008 BKN013 OVC018 00/M01 A3002 RMK AO2 PK WND 35026/2006 PRESRR P0001 T00001006
0382723086937412022010320227+37132-076494FM-16+0016KPHF V0203305N00775003965MN0016095N5+00005-00065999999ADDAA101000231AU110030015AU200001015AW1105AW2715GA1025+002445999GA2075+003965999GA3085+006105999GD11991+0024459GD23991+0039659GD34991+0061059GE19AGL   +99999+99999GF199999999999002441999999MA1101695101505MW1715OC101445OD149901441320REMMET14101/03/22 15:22:02 SPECI KPHF 032022Z 33015G28KT 1SM -SN BR FEW008 BKN013 OVC020 00/M01 A3003 RMK AO2 PK WND 32028/2015 PRESRR P0001 T00001006
0365723086937412022010320527+37132-076494FM-16+0016KPHF V0203405N00935004275MN0048285N5+00005-00105999999ADDAA101000231AU110030015AU200001015AW1105AW2715GA1045+002445999GA2075+004275999GA3085+014945999GD12991+0024459GD23991+0042759GD34991+0149459GE19AGL   +99999+99999GF199999999999002441999999MA1101765101575MW1715OC101295OD149901441320REMMET12401/03/22 15:52:02 SPECI KPHF 032052Z 34018G25KT 3SM -SN BR SCT008 BKN014 OVC049 00/M01 A3005 RMK AO2 PK WND 32028/2015 P0001
0438723086937412022010320547+37132-076494FM-15+0016KPHF V0203405N00825004275MN0080475N5+00005-00115101765ADDAA101000395AA203000891AU110030015AU200001015AW1105AW2715GA1025+002445999GA2075+004275999GA3085+014945999GD11991+0024459GD23991+0042759GD34991+0149459GE19AGL   +99999+99999GF199999999999002441999999MA1101765101575MD1190539+9999MW1715OC101295OD149901441320REMMET15301/03/22 15:54:02 METAR KPHF 032054Z 34016G25KT 5SM -SN BR FEW008 BKN014 OVC049 00/M01 A3005 RMK AO2 PK WND 32028/2015 SLP176 P0001 60003 T00001011 51053EQDQ01  00078PRCP03
0348723086937412022010321047+37132-076494FM-16+0016KPHF V0203405N00675005185MN0040235N5-00065-00115999999ADDAA101000021AU110030015AU200001015AW1105AW2715GA1045+002445999GA2075+005185999GA3085+011895999GD12991+0024459GD23991+0051859GD34991+0118959GE19AGL   +99999+99999GF199999999999002441999999MA1101795101605MW1715OC101245REMMET12101/03/22 16:04:02 SPECI KPHF 032104Z 34013G24KT 2 1/2SM -SN BR SCT008 BKN017 OVC039 M01/M01 A3006 RMK AO2 P0000 T10061011
0380723086937412022010321227+37132-076494FM-16+0016KPHF V0203305N00675003665MN0028165N5-00065-00115999999ADDAA101000021AU110030015AU200001015AW1105AW2715GA1075+003665999GA2075+005185999GA3085+011585999GD13991+0036659GD23991+0051859GD34991+0115859GE19AGL   +99999+99999GF199999999999003661999999MA1101865101675MW1715OC101135OD149901541320REMMET13901/03/22 16:22:02 SPECI KPHF 032122Z 33013G22KT 1 3/4SM -SN BR BKN012 BKN017 OVC038 M01/M01 A3008 RMK AO2 PK WND 32030/2105 P0000 T10061011
0300723086937412022010321377+37132-076494FM-16+0016KPHF V0203405N00675004275MN0032195N5-00065-00115999999ADDAA101000021AU110030015AU200001015AW1105AW2715GA1085+004275999GD14991+0042759GE19AGL   +99999+99999GF199999999999004271999999MA1101905101705MW1715OC101295OD149901541320REMMET12101/03/22 16:37:02 SPECI KPHF 032137Z 34013G25KT 2SM -SN BR OVC014 M01/M01 A3009 RMK AO2 PK WND 32030/2105 P0000 T10061011
0318723086937412022010321467+37132-076494FM-16+0016KPHF V0203405N00885005185MN0112655N5-00065-00175999999ADDAA101000021AU110030015AW1715GA1045+003665999GA2085+005185999GD12991+0036659GD24991+0051859GE19AGL   +99999+99999GF199999999999003661999999MA1101935101745MW1715OC101395OD149901541320REMMET12501/03/22 16:46:02 SPECI KPHF 032146Z 34017G27KT 7SM -SN SCT012 OVC017 M01/M02 A3010 RMK AO2 PK WND 32030/2105 P0000 T10061017
0312723086937412022010321547+37132-076494FM-15+0016KPHF V0203305N00675005795MN0144845N5-00065-00225101925ADDAA101000025GA1045+003665999GA2075+005795999GD12991+0036659GD23991+0057959GE19AGL   +99999+99999GF199999999999003661999999MA1101935101745OC101395OD149901541320REMMET14201/03/22 16:54:02 METAR KPHF 032154Z 33013G27KT 9SM SCT012 BKN019 M01/M02 A3010 RMK AO2 PK WND 32030/2105 UPB49E53SNE49 SLP192 P0000 T10061022
0224723086937412022010322067+37132-076494FM-16+0016KPHF V0203305N004652200059N0160935N5-00065-00225999999ADDGA1025+005495999GD11991+0054959GE19AGL   +99999+99999GF102995999999005491999999MA1101965101775OC100935REMMET09101/03/22 17:06:02 SPECI KPHF 032206Z 33009G18KT 10SM FEW018 M01/M02 A3011 RMK AO2 T10061022EQDD01      0ADE726
0198723086937412022010322547+37132-076494FM-15+0016KPHF V0203305V006252200059N0160935N5-00115-00335102085ADDAA101000095GA1005+999999999GD10991+9999999GF100991999999999999999999MA1102075101875OC100935REMMET09501/03/22 17:54:02 METAR KPHF 032254Z 33012G18KT 10SM CLR M01/M03 A3014 RMK AO2 SLP208 T10111033
0262723086937412022010323547+37132-076494FM-15+0016KPHF V0203205N005152200059N0160935N5-00175-00395102195ADDAA101000095AA206000891GA1005+999999999GD10991+9999999GF100991999999999999999999KA1060M+00061KA2060N-00171MA1102205102015MD1190449+9999REMMET11601/03/22 18:54:02 METAR KPHF 032354Z 32010KT 10SM CLR M02/M04 A3018 RMK AO2 SLP219 60003 T10171039 10006 21017 51044
0198723086937412022010400547+37132-076494FM-15+0016KPHF V0203305N005752200059N0160935N5-00115-00445102325ADDAA101000095GA1005+999999999GD10991+9999999GF100991999999999999999999MA1102345102145OC101085REMMET09501/03/22 19:54:01 METAR KPHF 040054Z 33011G21KT 10SM CLR M01/M04 A3022 RMK AO2 SLP232 T10111044
0187723086937412022010401547+37132-076494FM-15+0016KPHF V0203405N005152200059N0160935N5-00175-00505102375ADDAA101000095GA1005+999999999GD10991+9999999GF100991999999999999999999MA1102375102185REMMET09201/03/22 20:54:01 METAR KPHF 040154Z 34010KT 10SM CLR M02/M05 A3023 RMK AO2 SLP237 T10171050
0218723086937412022010402547+37132-076494FM-15+0016KPHF V0203405N005752200059N0160935N5-00175-00505102435ADDAA101000095GA1005+999999999GD10991+9999999GF100991999999999999999999MA1102445102245MD1190249+9999OC100885REMMET10101/03/22 21:54:01 METAR KPHF 040254Z 34011G17KT 10SM CLR M02/M05 A3025 RMK AO2 SLP243 T10171050 51024
0187723086937412022010403547+37132-076494FM-15+0016KPHF V0203405N004652200059N0160935N5-00175-00505102565ADDAA101000095GA1005+999999999GD10991+9999999GF100991999999999999999999MA1102575102385REMMET09201/03/22 22:54:02 METAR KPHF 040354Z 34009KT 10SM CLR M02/M05 A3029 RMK AO2 SLP256 T10171050
0223723086937412022010404547+37132-076494FM-15+0016KPHF V0203305N003152200059N0160935N5-00225-00505102685ADDAA101000095GA1005+999999999GD10991+9999999GF100991999999999999999999KA1240M+01061KA2240N-00221MA1102685102485REMMET10201/03/22 23:54:02 METAR KPHF 040454Z 33006KT 10SM CLR M02/M05 A3032 RMK AO2 SLP268 T10221050 401061022
0887723086937412022010404596+37132-076494SOD  +0016KPHF V020999999999999999999999999999+99999+99999999999ADDAA124045095AT1AU16RA  5AT2AU18SN  5AT3AU01FG  5AT4AU13BR  5AX1015245KA1240M+01065KA2240N-00215MG1101274100684OE11240205602099995OE22240125203099995OE33240068099999995REMSOD70924 HR PRECIPITATION (IN): 1.77 WEATHER(CODE):1  24 HR MAX TEMP (F): 5124 HR MIN TEMP (F): 28AVERAGE STATION PRESSURE:29.905 MINIMUM SEA LEVEL PRESSURE:29.73 TIME OF OCCURRENCE:1041 PEAK WIND SPEED (MPH): 46 PEAK WIND DIR (DEG): 20 PEAK WIND TIME (LST):      FASTEST 2MIN SPEED (MPH): 28FASTEST 2MIN DIR (DEG): 30 FASTEST 2MIN TIME (LST):     AVERAGE WIND SPEED (MPH):15.2 24 HR AVG TEMP (F): 40DEPART FROM NORMAL:  0  HEATING DEGREE DAYS: 25 COOLING DEGREE DAYS:  0 LATEST DAY MAX TEMP (0700-1900 LST):40  LATEST NIGHT MIN TEMP(1900-0800 LST):39 HOURLY INCREMENTAL PRECIPITATION VALUES (IN):.17 0.04 0.09 0.24 0.27 0.18 0.23 0.05 0.09 0.11 0.06 0.13 0.04 0.02 T    0.01 T    0.00 0.00 0.00 0.00 0.00 0.00 0.00
0245723086937412022010405547+37132-076494FM-15+0016KPHF V0203405N003652200059N0160935N5-00175-00505102785ADDAA101000095GA1005+999999999GD10991+9999999GF100991999999999999999999KA1060M-00111KA2060N-00221MA1102785102585MD1190359+9999REMMET11001/04/22 00:54:02 METAR KPHF 040554Z 34007KT 10SM CLR M02/M05 A3035 RMK AO2 SLP278 T10171050 11011 21022 51035
0187723086937412022010406547+37132-076494FM-15+0016KPHF V0203305N002152200059N0160935N5-00225-00505102925ADDAA101000095GA1005+999999999GD10991+9999999GF100991999999999999999999MA1102915102725REMMET09201/04/22 01:54:02 METAR KPHF 040654Z 33004KT 10SM CLR M02/M05 A3039 RMK AO2 SLP292 T10221050
0187723086937412022010407547+37132-076494FM-15+0016KPHF V0203405N002652200059N0160935N5-00225-00565102965ADDAA101000095GA1005+999999999GD10991+9999999GF100991999999999999999999MA1102985102795REMMET09201/04/22 02:54:02 METAR KPHF 040754Z 34005KT 10SM CLR M02/M06 A3041 RMK AO2 SLP296 T10221056
0207723086937412022010408547+37132-076494FM-15+0016KPHF V0203505N002652200059N0160935N5-00285-00565102965ADDAA101000095GA1005+999999999GD10991+9999999GF100991999999999999999999MA1102985102795MD1190189+9999REMMET09801/04/22 03:54:02 METAR KPHF 040854Z 35005KT 10SM CLR M03/M06 A3041 RMK AO2 SLP296 T10281056 51018
0187723086937412022010409547+37132-076494FM-15+0016KPHF V0203605N003152200059N0160935N5-00285-00615102995ADDAA101000095GA1005+999999999GD10991+9999999GF100991999999999999999999MA1102985102795REMMET09201/04/22 04:54:02 METAR KPHF 040954Z 36006KT 10SM CLR M03/M06 A3041 RMK AO2 SLP299 T10281061
0187723086937412022010410547+37132-076494FM-15+0016KPHF V0203605N002652200059N0160935N5-00335-00675103035ADDAA101000095GA1005+999999999GD10991+9999999GF100991999999999999999999MA1103055102855REMMET09201/04/22 05:54:02 METAR KPHF 041054Z 36005KT 10SM CLR M03/M07 A3043 RMK AO2 SLP303 T10331067
0267723086937412022010411547+37132-076494FM-15+0016KPHF V0203405N002152200059N0160935N5-00335-00675103115ADDAA101000095AA224013591GA1005+999999999GD10991+9999999GF100991999999999999999999KA1060M-00171KA2060N-00391MA1103125102925MD1390159+9999REMMET12101/04/22 06:54:02 METAR KPHF 041154Z 34004KT 10SM CLR M03/M07 A3045 RMK AO2 SLP311 70053 T10331067 11017 21039 53015 (YE)
0192723086937412022010412547+37132-076494FM-15+0016KPHF V0200105N001552200059N0160935N5-00335-00615103145ADDAA101000095GA1005+999999999GD10991+9999999GF100991999999999999999999MA1103155102955REMMET09701/04/22 07:54:02 METAR KPHF 041254Z 01003KT 10SM CLR M03/M06 A3046 RMK AO2 SLP314 T10331061 (YE)
0192723086937412022010413547+37132-076494FM-15+0016KPHF V0200105N002652200059N0160935N5-00115-00445103135ADDAA101000095GA1005+999999999GD10991+9999999GF100991999999999999999999MA1103125102925REMMET09701/04/22 08:54:02 METAR KPHF 041354Z 01005KT 10SM CLR M01/M04 A3045 RMK AO2 SLP313 T10111044 (IO)
0211723086937412022010414547+37132-076494FM-15+0016KPHF V0203605N003152200059N0160935N5+00065-00335103215ADDAA101000095GA1005+999999999GD10991+9999999GF100991999999999999999999MA1103225103025MD1390119+9999REMMET10201/04/22 09:54:02 METAR KPHF 041454Z 36006KT 10SM CLR 01/M03 A3048 RMK AO2 SLP321 T00061033 53011 (IO)
0191723086937412022010415547+37132-076494FM-15+0016KPHF V0200605N004652200059N0160935N5+00115-00335103215ADDAA101000095GA1005+999999999GD10991+9999999GF100991999999999999999999MA1103225103025REMMET09601/04/22 10:54:02 METAR KPHF 041554Z 06009KT 10SM CLR 01/M03 A3048 RMK AO2 SLP321 T00111033 (IO)
0191723086937412022010416547+37132-076494FM-15+0016KPHF V0209999C000052200059N0160935N5+00175-00445103185ADDAA101000095GA1005+999999999GD10991+9999999GF100991999999999999999999MA1103185102995REMMET09601/04/22 11:54:02 METAR KPHF 041654Z 00000KT 10SM CLR 02/M04 A3047 RMK AO2 SLP318 T00171044 (IO)
0236723086937412022010417547+37132-076494FM-15+0016KPHF V0209999N999992200059N0160935N5+00225-00395103105ADDAA101000095GA1005+999999999GD10991+9999999GF100991999999999999999999KA1060M+00281MA1103125102925MD1890129+9999REMMET11401/04/22 12:54:02 METAR KPHF 041754Z      KT 10SM CLR 02/M04 A3045 RMK AO2 SLP310 T00221039 10028 21039 58012 (IO)
0191723086937412022010418547+37132-076494FM-15+0016KPHF V0209999C000052200059N0160935N5+00285-00445103075ADDAA101000095GA1005+999999999GD10991+9999999GF100991999999999999999999MA1103085102895REMMET09601/04/22 13:54:02 METAR KPHF 041854Z 00000KT 10SM CLR 03/M04 A3044 RMK AO2 SLP307 T00281044 (IO)
0191723086937412022010419547+37132-076494FM-15+0016KPHF V0209999V001552200059N0160935N5+00285-00395103045ADDAA101000095GA1005+999999999GD10991+9999999GF100991999999999999999999MA1103055102855REMMET09601/04/22 14:54:02 METAR KPHF 041954Z VRB03KT 10SM CLR 03/M04 A3043 RMK AO2 SLP304 T00281039 (IO)
0211723086937412022010420547+37132-076494FM-15+0016KPHF V0200705N002652200059N0160935N5+00285-00335103025ADDAA101000095GA1005+999999999GD10991+9999999GF100991999999999999999999MA1103015102825MD1690079+9999REMMET10201/04/22 15:54:02 METAR KPHF 042054Z 07005KT 10SM CLR 03/M03 A3042 RMK AO2 SLP302 T00281033 56007 (RB)
0191723086937412022010421547+37132-076494FM-15+0016KPHF V0201005N002652200059N0160935N5+00065-00335103025ADDAA101000095GA1005+999999999GD10991+9999999GF100991999999999999999999MA1103015102825REMMET09601/04/22 16:54:02 METAR KPHF 042154Z 10005KT 10SM CLR 01/M03 A3042 RMK AO2 SLP302 T00061033 (RB)
0192723086937412022010422547+37132-076494FM-15+0016KPHF V0200905N002652200059N0160935N5-00065-00395102965ADDAA101000095GA1005+999999999GD10991+9999999GF100991999999999999999999MA1102955102755REMMET09701/04/22 17:54:02 METAR KPHF 042254Z 09005KT 10SM CLR M01/M04 A3040 RMK AO2 SLP296 T10061039 (RB)
0250723086937412022010423547+37132-076494FM-15+0016KPHF V0200505N002152200059N0160935N5-00115-00395102895ADDAA101000095GA1005+999999999GD10991+9999999GF100991999999999999999999KA1060M+00331KA2060N-00171MA1102915102725MD1890139+9999REMMET11501/04/22 18:54:02 METAR KPHF 042354Z 05004KT 10SM CLR M01/M04 A3039 RMK AO2 SLP289 T10111039 10033 21017 58013 (RB)
0187723086937412022010500547+37132-076494FM-15+0016KPHF V0201305N002152200059N0160935N5-00175-00445102805ADDAA101000095GA1005+999999999GD10991+9999999GF100991999999999999999999MA1102815102625REMMET09201/04/22 19:54:01 METAR KPHF 050054Z 13004KT 10SM CLR M02/M04 A3036 RMK AO2 SLP280 T10171044
0187723086937412022010501547+37132-076494FM-15+0016KPHF V0209999C000052200059N0160935N5-00225-00335102775ADDAA101000095GA1005+999999999GD10991+9999999GF100991999999999999999999MA1102785102585REMMET09201/04/22 20:54:01 METAR KPHF 050154Z 00000KT 10SM CLR M02/M03 A3035 RMK AO2 SLP277 T10221033
0251723086937412022010502547+37132-076494FM-15+0016KPHF V0201305N002652200059N0160935N5-00115-00335102685ADDAA101000095GA1025+018295999GD11991+0182959GE19AGL   +99999+99999GF102995999999018291999999MA1102685102485MD1790219+9999REMMET10101/04/22 21:54:01 METAR KPHF 050254Z 13005KT 10SM FEW060 M01/M03 A3032 RMK AO2 SLP268 T10111033 57021EQDD01      0ADE726
0211723086937412022010503547+37132-076494FM-15+0016KPHF V0209999C00005019815MN0160935N5+00005-00225102645ADDAA101000095GA1085+019815999GD14991+0198159GE19AGL   +99999+99999GF199999999999019811999999MA1102645102455REMMET09401/04/22 22:54:02 METAR KPHF 050354Z 00000KT 10SM OVC065 00/M02 A3031 RMK AO2 SLP264 T00001022
0265723086937412022010504547+37132-076494FM-15+0016KPHF V0201405N002152200059N0160935N5+00285+00115102445ADDAA101000095GA1025+021345999GD11991+0213459GE19AGL   +99999+99999GF102995999999021341999999KA1240M+00331KA2240N-00391MA1102445102245REMMET10301/04/22 23:54:02 METAR KPHF 050454Z 14004KT 10SM FEW070 03/01 A3025 RMK AO2 SLP244 T00280011 400331039EQDD01      0ADE726
0737723086937412022010504596+37132-076494SOD  +0016KPHF V020999999999999999999999999999+99999+99999999999ADDAA124000095KA1240M+00335KA2240N-00385MG1102764102444OE11249999999999997OE22240044706099995OE33240021599999995REMSOD61624 HR PRECIPITATION (IN): 0.00 24 HR MAX TEMP (F): 3824 HR MIN TEMP (F): 25AVERAGE STATION PRESSURE:30.345 MINIMUM SEA LEVEL PRESSURE:30.25 TIME OF OCCURRENCE:2359  FASTEST 2MIN SPEED (MPH): 10FASTEST 2MIN DIR (DEG): 60 FASTEST 2MIN TIME (LST):     AVERAGE WIND SPEED (MPH): 4.8 24 HR AVG TEMP (F): 32DEPART FROM NORMAL: -8  HEATING DEGREE DAYS: 33 COOLING DEGREE DAYS:  0 LATEST DAY MAX TEMP (0700-1900 LST):38  LATEST NIGHT MIN TEMP(1900-0800 LST):25 HOURLY INCREMENTAL PRECIPITATION VALUES (IN):.00 0.00 0.00 0.00 0.00 0.00 0.00 0.00 0.00 0.00 0.00 0.00 0.00 0.00 0.00 0.00 0.00 0.00 0.00 0.00 0.00 0.00 0.00 0.00
0268723086937412022010505547+37132-076494FM-15+0016KPHF V0202805N00315022865MN0160935N5+00115+00065102415ADDAA101000095GA1085+022865999GD14991+0228659GE19AGL   +99999+99999GF199999999999022861999999KA1060M+00331KA2060N-00281MA1102405102215MD1690279+9999REMMET11101/05/22 00:54:02 METAR KPHF 050554Z 28006KT 10SM OVC075 01/01 A3024 RMK AO2 SLP241 T00110006 10033 21028 56027
0231723086937412022010506547+37132-076494FM-15+0016KPHF V0202805N00155024385MN0160935N5+00225+00065102375ADDAA101000025GA1085+024385999GD14991+0243859GE19AGL   +99999+99999GF199999999999024381999999MA1102375102185REMMET11401/05/22 01:54:02 METAR KPHF 050654Z 28003KT 10SM OVC080 02/01 A3023 RMK AO2 RAB04E13B34E43 SLP237 P0000 T00220006
0287723086937412022010507547+37132-076494FM-15+0016KPHF V0209999C00005019815MN0160935N5+00225+00065102305ADDAA101000025AU110020015AW1615GA1075+019815999GA2085+024385999GD13991+0198159GD24991+0243859GE19AGL   +99999+99999GF199999999999019811999999MA1102305102115MW1615REMMET11601/05/22 02:54:02 METAR KPHF 050754Z 00000KT 10SM -RA BKN065 OVC080 02/01 A3021 RMK AO2 RAB52 SLP230 P0000 T00220006
0354723086937412022010508547+37132-076494FM-15+0016KPHF V0202705N00215016765MN0160935N5+00225+00065102235ADDAA101000396AA203000022GA1025+004885999GA2075+016765999GA3085+024385999GD11991+0048859GD23991+0167659GD34991+0243859GE19AGL   +99999+99999GF199999999999004881999999MA1102245102045MD1890199+9999REMMET13101/05/22 03:54:02 METAR KPHF 050854Z 27004KT 10SM FEW016 BKN055 OVC080 02/01 A3019 RMK AO2 RAE48 SLP223 P0000 60000 T00220006 58019EQDQ01  00008PRCP03
0332723086937412022010509547+37132-076494FM-15+0016KPHF V0209999C00005003965MN0128755N5+00225+00175102035ADDAA101000395AU110020015AW1615GA1075+003965999GA2075+019815999GA3085+022865999GD13991+0039659GD23991+0198159GD34991+0228659GE19AGL   +99999+99999GF199999999999003961999999MA1102035101845MW1615REMMET13001/05/22 04:54:02 METAR KPHF 050954Z 00000KT 8SM -RA BKN013 BKN065 OVC075 02/02 A3013 RMK AO2 RAB0857E09B36 SLP203 P0002 T00220017
0253723086937412022010510347+37132-076494FM-16+0016KPHF V0209999N99999002445MN0160935N5+00285+00225999999ADDAA101000021GA1075+002445999GA2085+021345999GD13991+0024459GD24991+0213459GE19AGL   +99999+99999GF199999999999002441999999MA1101965101775REMMET10501/05/22 05:34:02 SPECI KPHF 051034Z      KT 10SM BKN008 OVC070 03/02 A3011 RMK AO2 RAE00 P0000 T00280022
0243723086937412022010510497+37132-076494FM-16+0016KPHF V0209999N99999021345MN0160935N5+00305+00205999999ADDAA101000021GA1045+002445999GA2085+021345999GD12991+0024459GD24991+0213459GE19AGL   +99999+99999GF199999999999002441999999MA1101965101775REMMET09501/05/22 05:49:02 SPECI KPHF 051049Z      KT 10SM SCT008 OVC070 03/02 A3011 RMK AO2 RAE00 P0000
0265723086937412022010510547+37132-076494FM-15+0016KPHF V0209999N99999021345MN0160935N5+00285+00225101935ADDAA101000025GA1025+002445999GA2085+021345999GD11991+0024459GD24991+0213459GE19AGL   +99999+99999GF199999999999002441999999MA1101935101745REMMET11701/05/22 05:54:02 METAR KPHF 051054Z      KT 10SM FEW008 OVC070 03/02 A3010 RMK AO2 RAE00 SLP193 P0000 T00280022 (DP)
0364723086937412022010511547+37132-076494FM-15+0016KPHF V0209999C00005024385MN0160935N5+00335+00335101925ADDAA101000095AA206000591AA324000591GA1045+003355999GA2085+024385999GD12991+0033559GD24991+0243859GE19AGL   +99999+99999GF199999999999003351999999KA1060M+00331KA2060N+00111MA1101935101745MD1690119+9999REMMET13501/05/22 06:54:02 METAR KPHF 051154Z 00000KT 10SM SCT011 OVC080 03/03 A3010 RMK AO2 SLP192 60002 70002 T00330033 10033 20011 56011 (DP)EQDQ01  00058PRCP24
0235723086937412022010511597+37132-076494FM-16+0016KPHF V0209999C00005002745MN0160935N5+00335+00335999999ADDGA1075+002745999GA2085+024385999GD13991+0027459GD24991+0243859GE19AGL   +99999+99999GF199999999999002741999999MA1101935101745REMMET09801/05/22 06:59:02 SPECI KPHF 051159Z 00000KT 10SM BKN009 OVC080 03/03 A3010 RMK AO2 T00330033 (DP)
0235723086937412022010512157+37132-076494FM-16+0016KPHF V0202905N00155003055MN0160935N5+00285+00285999999ADDGA1075+003055999GA2085+024385999GD13991+0030559GD24991+0243859GE19AGL   +99999+99999GF199999999999003051999999MA1101935101745REMMET09801/05/22 07:15:02 SPECI KPHF 051215Z 29003KT 10SM BKN010 OVC080 03/03 A3010 RMK AO2 T00280028 (DP)
0223723086937412022010512397+37132-076494FM-16+0016KPHF V0202705N00215002745MN0160935N5+00395+00335999999ADDAA101000021GA1085+002745999GD14991+0027459GE19AGL   +99999+99999GF199999999999002741999999MA1101905101705REMMET10601/05/22 07:39:02 SPECI KPHF 051239Z 27004KT 10SM OVC009 04/03 A3009 RMK AO2 RAB20E34 P0000 T00390033 (IO)
0230723086937412022010512547+37132-076494FM-15+0016KPHF V0202805N00265002745MN0160935N5+00395+00335101915ADDAA101000025GA1085+002745999GD14991+0027459GE19AGL   +99999+99999GF199999999999002741999999MA1101905101705REMMET11301/05/22 07:54:02 METAR KPHF 051254Z 28005KT 10SM OVC009 04/03 A3009 RMK AO2 RAB20E34 SLP191 P0000 T00390033 (IO)
0311723086937412022010513547+37132-076494FM-15+0016KPHF V0202805N00265002745MN0080475N5+00505+00505101855ADDAA101000895AU110020015AU200001015AW1105AW2615GA1075+002745999GA2085+009145999GD13991+0027459GD24991+0091459GE19AGL   +99999+99999GF199999999999002741999999MA1101865101675MW1615REMMET12301/05/22 08:54:02 METAR KPHF 051354Z 28005KT 5SM -RA BR BKN009 OVC030 05/05 A3008 RMK AO2 RAB01 SLP185 P0003 T00500050 (IO)
0296723086937412022010514017+37132-076494FM-16+0016KPHF V0202605N00365003355MN0160935N5+00505+00505999999ADDAA101000021GA1075+003355999GA2075+009145999GA3085+014335999GD13991+0033559GD23991+0091459GD34991+0143359GE19AGL   +99999+99999GF199999999999003351999999MA1101905101705REMMET11701/05/22 09:01:02 SPECI KPHF 051401Z 26007KT 10SM BKN011 BKN030 OVC047 05/05 A3009 RMK AO2 RAE01 P0000 T00500050 (IO)
0269723086937412022010514227+37132-076494FM-16+0016KPHF V0209999C00005002745MN0016095N5+00505+00445999999ADDAA101000231AU110020015AU200001015AW1105AW2615GA1085+002745999GD14991+0027459GE19AGL   +99999+99999GF199999999999002741999999MA1101835101645MW1615REMMET11201/05/22 09:22:02 SPECI KPHF 051422Z 00000KT 1SM -RA BR OVC009 05/04 A3007 RMK AO2 RAE01B06 P0001 T00500044 (SB)
0331723086937412022010514547+37132-076494FM-15+0016KPHF V0202405N00155002745MN0016095N5+00505+00505101785ADDAA101001395AA203002091AU120020015AU200001015AW1105AW2625GA1085+002745999GD14991+0027459GE19AGL   +99999+99999GF199999999999002741999999MA1101795101605MD1890149+9999MW1655REMMET13001/05/22 09:54:02 METAR KPHF 051454Z 24003KT 1SM RA BR OVC009 05/05 A3006 RMK AO2 RAE01B06 SLP178 P0005 60008 T00500050 58014 (SB)EQDQ01  00208PRCP03
0234723086937412022010515526+37132-076494FM-16+0016KPHF V0202205N00155001225MN0096565N5+00605+00605999999ADDAU110020015AU200001015AW1105AW2615GA1075+001225999GA2085+004575999GD13991+0012259GD24991+0045759MA1101665101475MW1615REMMET10501/05/22 10:52:02 SPECI KPHF 051552Z 22003KT 6SM -RA BR BKN004 OVC015 06/06 A3002 RMK AO2 P0005 FIBI (SB)
0264723086937412022010515547+37132-076494FM-15+0016KPHF V0202205N00155001225MN0112655N5+00565+00565101655ADDAA101001395GA1075+001225999GA2085+004575999GD13991+0012259GD24991+0045759GE19AGL   +99999+99999GF199999999999001221999999MA1101665101475REMMET11601/05/22 10:54:02 METAR KPHF 051554Z 22003KT 7SM BKN004 OVC015 06/06 A3002 RMK AO2 RAE53 SLP165 P0005 T00560056 (SB)
0268723086937412022010516327+37132-076494FM-16+0016KPHF V0202405N00155001225MN0032195N5+00615+00615999999ADDAA101000231AU110020015AU200001015AW1105AW2615GA1085+001225999GD14991+0012259GE19AGL   +99999+99999GF199999999999001221999999MA1101565101375MW1615REMMET11101/05/22 11:32:02 SPECI KPHF 051632Z 24003KT 2SM -RA BR OVC004 06/06 A2999 RMK AO2 RAB1555 P0001 T00610061 (SB)
0351723086937412022010516417+37132-076494FM-16+0016KPHF V0209999C00005001225MN0048285N5+00615+00615999999ADDAA101000231AU110020015AU200001015AW1105AW2615GA1075+001225999GA2075+008845999GA3085+013115999GD13991+0012259GD23991+0088459GD34991+0131159GE19AGL   +99999+99999GF199999999999001221999999MA1101495101305MW1615REMMET13201/05/22 11:41:02 SPECI KPHF 051641Z 00000KT 3SM -RA BR BKN004 BKN029 OVC043 06/06 A2997 RMK AO2 RAB1555 PRESFR P0001 T00610061 (SB)
0293723086937412022010516547+37132-076494FM-15+0016KPHF V0202705N00365001225MN0128755N5+00675+00615101525ADDAA101000595AU110020015AW1615GA1075+001225999GA2085+013115999GD13991+0012259GD24991+0131159GE19AGL   +99999+99999GF199999999999001221999999MA1101525101335MW1615REMMET12201/05/22 11:54:02 METAR KPHF 051654Z 27007KT 8SM -RA BKN004 OVC043 07/06 A2998 RMK AO2 RAB1555 SLP152 P0002 T00670061 (SB)
0234723086937412022010517437+37132-076494FM-16+0016KPHF V0202405N00265002745MN0160935N5+00675+00615999999ADDAA101000021GA1085+002745999GD14991+0027451GE19AGL   +99999+99999GF199999999999002741999999MA1101395101205REMMET11701/05/22 12:43:02 SPECI KPHF 051743Z 24005KT 10SM OVC009 07/06 A2994 RMK AO2 RAE1657 CIG 004V010 P0000 T00670061 (SB)
0335723086937412022010517547+37132-076494FM-15+0016KPHF V0202205N00155002745MN0160935N5+00675+00675101355ADDAA101000095AA206003891GA1085+002745999GD14991+0027451GE19AGL   +99999+99999GF199999999999002741999999KA1060M+00671KA2060N+00391MA1101355101165MD1890429+9999REMMET14801/05/22 12:54:02 METAR KPHF 051754Z 22003KT 10SM OVC009 07/07 A2993 RMK AO2 RAE1657 CIG 005V010 SLP135 P0000 60015 T00670067 10067 20039 58042 (SB)EQDQ01  00388PRCP06
0215723086937412022010518547+37132-076494FM-15+0016KPHF V0202205N00265001835MN0160935N5+00785+00725101235ADDAA101000095GA1085+001835999GD14991+0018359GE19AGL   +99999+99999GF199999999999001831999999MA1101255101065REMMET09801/05/22 13:54:02 METAR KPHF 051854Z 22005KT 10SM OVC006 08/07 A2990 RMK AO2 SLP123 T00780072 (RB)
0187723086937412022010519497+37132-076494FM-16+0016KPHF V0202205N00315001225MN0160935N5+00805+00805999999ADDGA1085+001225999GD14991+0012259GE19AGL   +99999+99999GF199999999999001221999999MA1101195100995REMMET08101/05/22 14:49:02 SPECI KPHF 051949Z 22006KT 10SM OVC004 08/08 A2988 RMK AO2 (RB)
0215723086937412022010519547+37132-076494FM-15+0016KPHF V0201805N00315001225MN0160935N5+00835+00785101175ADDAA101000095GA1085+001225999GD14991+0012259GE19AGL   +99999+99999GF199999999999001221999999MA1101195100995REMMET09801/05/22 14:54:02 METAR KPHF 051954Z 18006KT 10SM OVC004 08/08 A2988 RMK AO2 SLP117 T00830078 (RB)
0235723086937412022010520547+37132-076494FM-15+0016KPHF V0202205N00315001225MN0160935N5+00895+00835101145ADDAA101000095GA1085+001225999GD14991+0012259GE19AGL   +99999+99999GF199999999999001221999999MA1101155100965MD1690099+9999REMMET10401/05/22 15:54:02 METAR KPHF 052054Z 22006KT 10SM OVC004 09/08 A2987 RMK AO2 SLP114 T00890083 56009 (RB)
0197723086937412022010521127+37132-076494FM-16+0016KPHF V0202105N00315001525MN0160935N5+00895+00835999999ADDGA1085+001525999GD14991+0015259GE19AGL   +99999+99999GF199999999999001521999999MA1101125100935REMMET09101/05/22 16:12:02 SPECI KPHF 052112Z 21006KT 10SM OVC005 09/08 A2986 RMK AO2 T00890083 (RB)
0144723086937412022010521526+37132-076494FM-16+0016KPHF V0202105N00315001225MN0160935N5+00805+00805999999ADDGA1085+001225999GD14991+0012259MA1101055100865REMMET08601/05/22 16:52:02 SPECI KPHF 052152Z 21006KT 10SM OVC004 08/08 A2984 RMK AO2 FIBI (RB)
0215723086937412022010521547+37132-076494FM-15+0016KPHF V0202105N00315001225MN0160935N5+00835+00835101065ADDAA101000095GA1085+001225999GD14991+0012259GE19AGL   +99999+99999GF199999999999001221999999MA1101055100865REMMET09801/05/22 16:54:02 METAR KPHF 052154Z 21006KT 10SM OVC004 08/08 A2984 RMK AO2 SLP106 T00830083 (RB)
0197723086937412022010522077+37132-076494FM-16+0016KPHF V0201905N00315001525MN0160935N5+00835+00835999999ADDGA1075+001525999GD13991+0015259GE19AGL   +99999+99999GF199999999999001521999999MA1101055100865REMMET09101/05/22 17:07:02 SPECI KPHF 052207Z 19006KT 10SM BKN005 08/08 A2984 RMK AO2 T00830083 (RB)
0214723086937412022010522547+37132-076494FM-15+0016KPHF V0202105N00215001525MN0144845N5+00785+00785101055ADDAA101000095GA1085+001525999GD14991+0015259GE19AGL   +99999+99999GF199999999999001521999999MA1101055100865REMMET09701/05/22 17:54:02 METAR KPHF 052254Z 21004KT 9SM OVC005 08/08 A2984 RMK AO2 SLP105 T00780078 (RB)
0216723086937412022010523387+37132-076494FM-16+0016KPHF V0202405N00215001225MN0096565N5+00785+00785999999ADDAU100001015AW1105GA1085+001225999GD14991+0012259GE19AGL   +99999+99999GF199999999999001221999999MA1101055100865REMMET09301/05/22 18:38:02 SPECI KPHF 052338Z 24004KT 6SM BR OVC004 08/08 A2984 RMK AO2 T00780078 (RB)
0272723086937412022010523547+37132-076494FM-15+0016KPHF V0202405N00315001225MN0112655N5+00785+00785101085ADDAA101000095GA1085+001225999GD14991+0012259GE19AGL   +99999+99999GF199999999999001221999999KA1060M+00891KA2060N+00671MA1101085100895MD1590059+9999REMMET11501/05/22 18:54:02 METAR KPHF 052354Z 24006KT 7SM OVC004 08/08 A2985 RMK AO2 SLP108 T00780078 10089 20067 55005 (RB)
0229723086937412022010600547+37132-076494FM-15+0016KPHF V0202205N00365000915MN0080475N5+00785+00785101045ADDAA101000095AU100001015AW1105GA1085+000915999GD14991+0009159GE19AGL   +99999+99999GF199999999999000911999999MA1101055100865REMMET09501/05/22 19:54:01 METAR KPHF 060054Z 22007KT 5SM BR OVC003 08/08 A2984 RMK AO2 SLP104 T00780078
0229723086937412022010601547+37132-076494FM-15+0016KPHF V0202305N00465000915MN0096565N5+00785+00785101035ADDAA101000095AU100001015AW1105GA1085+000915999GD14991+0009159GE19AGL   +99999+99999GF199999999999000911999999MA1101055100865REMMET09501/05/22 20:54:01 METAR KPHF 060154Z 23009KT 6SM BR OVC003 08/08 A2984 RMK AO2 SLP103 T00780078
0249723086937412022010602547+37132-076494FM-15+0016KPHF V0202305N00315001225MN0096565N5+00725+00725101005ADDAA101000095AU100001015AW1105GA1075+001225999GD13991+0012259GE19AGL   +99999+99999GF199999999999001221999999MA1101025100825MD1690089+9999REMMET10101/05/22 21:54:01 METAR KPHF 060254Z 23006KT 6SM BR BKN004 07/07 A2983 RMK AO2 SLP100 T00720072 56008
0191723086937412022010603177+37132-076494FM-16+0016KPHF V0202405N00365001525MN0128755N5+00785+00785999999ADDGA1085+001525999GD14991+0015259GE19AGL   +99999+99999GF199999999999001521999999MA1101025100825REMMET08501/05/22 22:17:01 SPECI KPHF 060317Z 24007KT 8SM OVC005 08/08 A2983 RMK AO2 T00780078
0210723086937412022010603467+37132-076494FM-16+0016KPHF V0202305N004652200059N0144845N5+00785+00785999999ADDGA1045+001525999GD12991+0015259GE19AGL   +99999+99999GF104995999999001521999999MA1101025100825REMMET08501/05/22 22:46:01 SPECI KPHF 060346Z 23009KT 9SM SCT005 08/08 A2983 RMK AO2 T00780078EQDD01      0ADE726
0228723086937412022010603547+37132-076494FM-15+0016KPHF V0202305N004652200059N0144845N5+00785+00785101015ADDAA101000095GA1025+001525999GD11991+0015259GE19AGL   +99999+99999GF102995999999001521999999MA1101025100825REMMET09201/05/22 22:54:01 METAR KPHF 060354Z 23009KT 9SM FEW005 08/08 A2983 RMK AO2 SLP101 T00780078EQDD01      0ADE726
0191723086937412022010604177+37132-076494FM-16+0016KPHF V0202405N00415001525MN0128755N5+00785+00785999999ADDGA1075+001525999GD13991+0015259GE19AGL   +99999+99999GF199999999999001521999999MA1101025100825REMMET08501/05/22 23:17:02 SPECI KPHF 060417Z 24008KT 8SM BKN005 08/08 A2983 RMK AO2 T00780078
0245723086937412022010604547+37132-076494FM-15+0016KPHF V0202405N00515001525MN0144845N5+00785+00785101025ADDAA101000095GA1075+001525999GD13991+0015259GE19AGL   +99999+99999GF199999999999001521999999KA1240M+00891KA2240N+00111MA1101025100825REMMET10201/05/22 23:54:02 METAR KPHF 060454Z 24010KT 9SM BKN005 08/08 A2983 RMK AO2 SLP102 T00780078 400890011
0787723086937412022010604596+37132-076494SOD  +0016KPHF V020999999999999999999999999999+99999+99999999999ADDAA124004395AT1AU16RA  5AT2AU13BR  5AX1015245KA1240M+00895KA2240N+00115MG1101494100984OE11249999999999997OE22240044723099995OE33240024199999995REMSOD63324 HR PRECIPITATION (IN): 0.17 WEATHER(CODE):1  24 HR MAX TEMP (F): 4824 HR MIN TEMP (F): 34AVERAGE STATION PRESSURE:29.970 MINIMUM SEA LEVEL PRESSURE:29.82 TIME OF OCCURRENCE:2154  FASTEST 2MIN SPEED (MPH): 10FASTEST 2MIN DIR (DEG):230 FASTEST 2MIN TIME (LST):     AVERAGE WIND SPEED (MPH): 5.4 24 HR AVG TEMP (F): 41DEPART FROM NORMAL:  1  HEATING DEGREE DAYS: 24 COOLING DEGREE DAYS:  0 LATEST DAY MAX TEMP (0700-1900 LST):48  LATEST NIGHT MIN TEMP(1900-0800 LST):27 HOURLY INCREMENTAL PRECIPITATION VALUES (IN):.00 T    T    0.01 0.01 T    0.00 T    0.03 0.05 0.05 0.02 0.00 0.00 0.00 0.00 0.00 0.00 0.00 0.00 0.00 0.00 0.00 0.00
0210723086937412022010605257+37132-076494FM-16+0016KPHF V0202405N004152200059N0144845N5+00785+00785999999ADDGA1045+001835999GD12991+0018359GE19AGL   +99999+99999GF104995999999001831999999MA1101025100825REMMET08501/06/22 00:25:02 SPECI KPHF 060525Z 24008KT 9SM SCT006 08/08 A2983 RMK AO2 T00780078EQDD01      0ADE726
0243723086937412022010605547+37132-076494FM-15+0016KPHF V0202505N004152200059N0160935N5+00785+00725101005ADDAA101000095GA1005+999999999GD10991+9999999GF100991999999999999999999KA1060M+00781KA2060N+00721MA1101025100825MD1090009+9999REMMET10801/06/22 00:54:02 METAR KPHF 060554Z 25008KT 10SM CLR 08/07 A2983 RMK AO2 SLP100 T00780072 10078 20072 50000
0185723086937412022010606547+37132-076494FM-15+0016KPHF V0202405N003652200059N0160935N5+00835+00675101045ADDAA101000095GA1005+999999999GD10991+9999999GF100991999999999999999999MA1101055100865REMMET09001/06/22 01:54:02 METAR KPHF 060654Z 24007KT 10SM CLR 08/07 A2984 RMK AO2 SLP104 T00830067
0185723086937412022010607547+37132-076494FM-15+0016KPHF V0202705N002652200059N0160935N5+00725+00565101145ADDAA101000095GA1005+999999999GD10991+9999999GF100991999999999999999999MA1101155100965REMMET09001/06/22 02:54:02 METAR KPHF 060754Z 27005KT 10SM CLR 07/06 A2987 RMK AO2 SLP114 T00720056
0205723086937412022010608547+37132-076494FM-15+0016KPHF V0202505N004152200059N0160935N5+00675+00445101245ADDAA101000095GA1005+999999999GD10991+9999999GF100991999999999999999999MA1101255101065MD1390249+9999REMMET09601/06/22 03:54:02 METAR KPHF 060854Z 25008KT 10SM CLR 07/04 A2990 RMK AO2 SLP124 T00670044 53024
0185723086937412022010609547+37132-076494FM-15+0016KPHF V0202605N003152200059N0160935N5+00615+00335101265ADDAA101000095GA1005+999999999GD10991+9999999GF100991999999999999999999MA1101255101065REMMET09001/06/22 04:54:02 METAR KPHF 060954Z 26006KT 10SM CLR 06/03 A2990 RMK AO2 SLP126 T00610033
0190723086937412022010610547+37132-076494FM-15+0016KPHF V0202505N002652200059N0160935N5+00565+00285101355ADDAA101000095GA1005+999999999GD10991+9999999GF100991999999999999999999MA1101355101165REMMET09501/06/22 05:54:02 METAR KPHF 061054Z 25005KT 10SM CLR 06/03 A2993 RMK AO2 SLP135 T00560028 (DP)
0265723086937412022010611547+37132-076494FM-15+0016KPHF V0202705N002152200059N0160935N5+00565+00225101445ADDAA101000095AA224003891GA1005+999999999GD10991+9999999GF100991999999999999999999KA1060M+00831KA2060N+00501MA1101465101265MD1390209+9999REMMET11901/06/22 06:54:02 METAR KPHF 061154Z 27004KT 10SM CLR 06/02 A2996 RMK AO2 SLP144 70015 T00560022 10083 20050 53020 (DP)
0190723086937412022010612547+37132-076494FM-15+0016KPHF V0202705N002152200059N0160935N5+00505+00225101515ADDAA101000095GA1005+999999999GD10991+9999999GF100991999999999999999999MA1101525101335REMMET09501/06/22 07:54:02 METAR KPHF 061254Z 27004KT 10SM CLR 05/02 A2998 RMK AO2 SLP151 T00500022 (DP)
0190723086937412022010613547+37132-076494FM-15+0016KPHF V0202705N002652200059N0160935N5+00785+00285101605ADDAA101000095GA1005+999999999GD10991+9999999GF100991999999999999999999MA1101595101405REMMET09501/06/22 08:54:02 METAR KPHF 061354Z 27005KT 10SM CLR 08/03 A3000 RMK AO2 SLP160 T00780028 (DP)
0210723086937412022010614547+37132-076494FM-15+0016KPHF V0202905N002652200059N0160935N5+00835+00285101625ADDAA101000095GA1005+999999999GD10991+9999999GF100991999999999999999999MA1101635101435MD1190199+9999REMMET10101/06/22 09:54:02 METAR KPHF 061454Z 29005KT 10SM CLR 08/03 A3001 RMK AO2 SLP162 T00830028 51019 (DP)
0190723086937412022010615547+37132-076494FM-15+0016KPHF V0202405N002652200059N0160935N5+00835+00175101605ADDAA101000095GA1005+999999999GD10991+9999999GF100991999999999999999999MA1101635101435REMMET09501/06/22 10:54:02 METAR KPHF 061554Z 24005KT 10SM CLR 08/02 A3001 RMK AO2 SLP160 T00830017 (DP)
0190723086937412022010616547+37132-076494FM-15+0016KPHF V0209999C000052200059N0160935N5+00945+00225101465ADDAA101000095GA1005+999999999GD10991+9999999GF100991999999999999999999MA1101465101265REMMET09501/06/22 11:54:02 METAR KPHF 061654Z 00000KT 10SM CLR 09/02 A2996 RMK AO2 SLP146 T00940022 (DP)
0248723086937412022010617547+37132-076494FM-15+0016KPHF V0202005N002152200059N0160935N5+00945+00225101365ADDAA101000095GA1005+999999999GD10991+9999999GF100991999999999999999999KA1060M+01001KA2060N+00331MA1101395101205MD1890259+9999REMMET11301/06/22 12:54:02 METAR KPHF 061754Z 20004KT 10SM CLR 09/02 A2994 RMK AO2 SLP136 T00940022 10100 20033 58025 (DP)
0190723086937412022010618547+37132-076494FM-15+0016KPHF V0201805N003152200059N0160935N5+01065+00065101295ADDAA101000095GA1005+999999999GD10991+9999999GF100991999999999999999999MA1101325101135REMMET09501/06/22 13:54:02 METAR KPHF 061854Z 18006KT 10SM CLR 11/01 A2992 RMK AO2 SLP129 T01060006 (DP)
0185723086937412022010619547+37132-076494FM-15+0016KPHF V0200905N003152200059N0160935N5+01175+00175101255ADDAA101000095GA1005+999999999GD10991+9999999GF100991999999999999999999MA1101255101065REMMET09001/06/22 14:54:02 METAR KPHF 061954Z 09006KT 10SM CLR 12/02 A2990 RMK AO2 SLP125 T01170017
0211723086937412022010620547+37132-076494FM-15+0016KPHF V0200805N004152200059N0160935N5+00945-00115101265ADDAA101000095GA1005+999999999GD10991+9999999GF100991999999999999999999MA1101295101095MD1590109+9999REMMET10201/06/22 15:54:02 METAR KPHF 062054Z 08008KT 10SM CLR 09/M01 A2991 RMK AO2 SLP126 T00941011 55010 (AZ)
0190723086937412022010621547+37132-076494FM-15+0016KPHF V0200605N002652200059N0160935N5+00675+00285101285ADDAA101000095GA1005+999999999GD10991+9999999GF100991999999999999999999MA1101295101095REMMET09501/06/22 16:54:02 METAR KPHF 062154Z 06005KT 10SM CLR 07/03 A2991 RMK AO2 SLP128 T00670028 (AZ)
0215723086937412022010622547+37132-076494FM-15+0016KPHF V0200705N00315030485MN0160935N5+00725+00395101285ADDAA101000095GA1075+030485999GD13991+0304859GE19AGL   +99999+99999GF199999999999030481999999MA1101295101095REMMET09801/06/22 17:54:02 METAR KPHF 062254Z 07006KT 10SM BKN100 07/04 A2991 RMK AO2 SLP128 T00720039 (AZ)
0273723086937412022010623547+37132-076494FM-15+0016KPHF V0201305N00265030485MN0160935N5+00725+00395101295ADDAA101000095GA1085+030485999GD14991+0304859GE19AGL   +99999+99999GF199999999999030481999999KA1060M+01171KA2060N+00561MA1101295101095MD1390029+9999REMMET11601/06/22 18:54:02 METAR KPHF 062354Z 13005KT 10SM OVC100 07/04 A2991 RMK AO2 SLP129 T00720039 10117 20056 53002 (RB)
0229723086937412022010700547+37132-076494FM-15+0016KPHF V0201005N004652200059N0160935N5+00615+00395100995ADDAA101000095GA1045+027435999GD12991+0274359GE19AGL   +99999+99999GF104995999999027431999999MA1100985100795REMMET09301/06/22 19:54:01 METAR KPHF 070054Z 10009KT 10SM SCT090 06/04 A2982 RMK AO2 SLP099 T00610039EQDD01      0ADE726
0286723086937412022010701547+37132-076494FM-15+0016KPHF V0200905N00315018295MN0160935N5+00725+00445100885ADDAA101000095GA1075+018295999GA2075+021345999GA3085+025915999GD13991+0182959GD23991+0213459GD34991+0259159GE19AGL   +99999+99999GF199999999999018291999999MA1100885100695REMMET10701/06/22 20:54:01 METAR KPHF 070154Z 09006KT 10SM BKN060 BKN070 OVC085 07/04 A2979 RMK AO2 SLP088 T00720044
0230723086937412022010702547+37132-076494FM-15+0016KPHF V0201105N00315013415MN0160935N5+00835+00445100785ADDAA101000095GA1085+013415999GD14991+0134159GE19AGL   +99999+99999GF199999999999013411999999MA1100785100595MD1690509+9999REMMET09901/06/22 21:54:01 METAR KPHF 070254Z 11006KT 10SM OVC044 08/04 A2976 RMK AO2 SLP078 T00830044 56050
0325723086937412022010703547+37132-076494FM-15+0016KPHF V0200605N00215027435MN0160935N5+00835+00505100675ADDAA101000025AU110020015AW1615GA1025+011585999GA2045+014945999GA3085+027435999GD11991+0115859GD22991+0149459GD34991+0274359GE19AGL   +99999+99999GF199999999999011581999999MA1100685100495MW1615REMMET12301/06/22 22:54:01 METAR KPHF 070354Z 06004KT 10SM -RA FEW038 SCT049 OVC090 08/05 A2973 RMK AO2 RAB48 SLP067 P0000 T00830050
